{
  "_format": "hh-sol-artifact-1",
  "contractName": "LiquidStaking",
  "sourceName": "contracts/LiquidStaking.sol",
  "abi": [
    {
      "inputs": [
        {
          "internalType": "address",
          "name": "_stakingToken",
          "type": "address"
        },
        {
          "internalType": "address",
          "name": "_rewardToken",
          "type": "address"
        },
        {
          "internalType": "address",
          "name": "_nativeTokenWrapper",
          "type": "address"
        }
      ],
      "stateMutability": "nonpayable",
      "type": "constructor"
    },
    {
      "anonymous": false,
      "inputs": [
        {
          "indexed": false,
          "internalType": "string",
          "name": "prevURI",
          "type": "string"
        },
        {
          "indexed": false,
          "internalType": "string",
          "name": "newURI",
          "type": "string"
        }
      ],
      "name": "ContractURIUpdated",
      "type": "event"
    },
    {
      "anonymous": false,
      "inputs": [
        {
          "indexed": true,
          "internalType": "address",
          "name": "prevOwner",
          "type": "address"
        },
        {
          "indexed": true,
          "internalType": "address",
          "name": "newOwner",
          "type": "address"
        }
      ],
      "name": "OwnerUpdated",
      "type": "event"
    },
    {
      "anonymous": false,
      "inputs": [
        {
          "indexed": true,
          "internalType": "address",
          "name": "staker",
          "type": "address"
        },
        {
          "indexed": false,
          "internalType": "uint256",
          "name": "rewardAmount",
          "type": "uint256"
        }
      ],
      "name": "RewardsClaimed",
      "type": "event"
    },
    {
      "anonymous": false,
      "inputs": [
        {
          "indexed": true,
          "internalType": "address",
          "name": "staker",
          "type": "address"
        },
        {
          "indexed": false,
          "internalType": "uint256",
          "name": "amount",
          "type": "uint256"
        }
      ],
      "name": "TokensStaked",
      "type": "event"
    },
    {
      "anonymous": false,
      "inputs": [
        {
          "indexed": true,
          "internalType": "address",
          "name": "staker",
          "type": "address"
        },
        {
          "indexed": false,
          "internalType": "uint256",
          "name": "amount",
          "type": "uint256"
        }
      ],
      "name": "TokensWithdrawn",
      "type": "event"
    },
    {
      "anonymous": false,
      "inputs": [
        {
          "indexed": false,
          "internalType": "uint256",
          "name": "oldAmount",
          "type": "uint256"
        },
        {
          "indexed": false,
          "internalType": "uint256",
          "name": "newAmount",
          "type": "uint256"
        }
      ],
      "name": "UpdatedMinStakeAmount",
      "type": "event"
    },
    {
      "anonymous": false,
      "inputs": [
        {
          "indexed": false,
          "internalType": "uint256",
          "name": "oldNumerator",
          "type": "uint256"
        },
        {
          "indexed": false,
          "internalType": "uint256",
          "name": "newNumerator",
          "type": "uint256"
        },
        {
          "indexed": false,
          "internalType": "uint256",
          "name": "oldDenominator",
          "type": "uint256"
        },
        {
          "indexed": false,
          "internalType": "uint256",
          "name": "newDenominator",
          "type": "uint256"
        }
      ],
      "name": "UpdatedRewardRatio",
      "type": "event"
    },
    {
      "anonymous": false,
      "inputs": [
        {
          "indexed": false,
          "internalType": "uint256",
          "name": "oldTimeUnit",
          "type": "uint256"
        },
        {
          "indexed": false,
          "internalType": "uint256",
          "name": "newTimeUnit",
          "type": "uint256"
        }
      ],
      "name": "UpdatedTimeUnit",
      "type": "event"
    },
    {
      "inputs": [],
      "name": "_queryGivenRewardToken",
      "outputs": [
        {
          "internalType": "uint256",
          "name": "",
          "type": "uint256"
        }
      ],
      "stateMutability": "view",
      "type": "function"
    },
    {
      "inputs": [],
      "name": "_queryTotalPool",
      "outputs": [
        {
          "internalType": "uint256",
          "name": "",
          "type": "uint256"
        }
      ],
      "stateMutability": "view",
      "type": "function"
    },
    {
      "inputs": [],
      "name": "checkRewardTokenApproval",
      "outputs": [
        {
          "internalType": "uint256",
          "name": "",
          "type": "uint256"
        }
      ],
      "stateMutability": "view",
      "type": "function"
    },
    {
      "inputs": [],
      "name": "checkStakingTokenApproval",
      "outputs": [
        {
          "internalType": "uint256",
          "name": "",
          "type": "uint256"
        }
      ],
      "stateMutability": "view",
      "type": "function"
    },
    {
      "inputs": [],
      "name": "claimRewards",
      "outputs": [],
      "stateMutability": "nonpayable",
      "type": "function"
    },
    {
      "inputs": [],
      "name": "contractURI",
      "outputs": [
        {
          "internalType": "string",
          "name": "",
          "type": "string"
        }
      ],
      "stateMutability": "view",
      "type": "function"
    },
    {
      "inputs": [
        {
          "internalType": "uint256",
          "name": "_amount",
          "type": "uint256"
        }
      ],
      "name": "depositRewardTokens",
      "outputs": [],
      "stateMutability": "payable",
      "type": "function"
    },
    {
      "inputs": [],
      "name": "getRewardRatio",
      "outputs": [
        {
          "internalType": "uint256",
          "name": "_numerator",
          "type": "uint256"
        },
        {
          "internalType": "uint256",
          "name": "_denominator",
          "type": "uint256"
        }
      ],
      "stateMutability": "view",
      "type": "function"
    },
    {
      "inputs": [],
      "name": "getRewardTokenBalance",
      "outputs": [
        {
          "internalType": "uint256",
          "name": "",
          "type": "uint256"
        }
      ],
      "stateMutability": "view",
      "type": "function"
    },
    {
      "inputs": [
        {
          "internalType": "address",
          "name": "_staker",
          "type": "address"
        }
      ],
      "name": "getStakeInfo",
      "outputs": [
        {
          "internalType": "uint256",
          "name": "_tokensStaked",
          "type": "uint256"
        },
        {
          "internalType": "uint256",
          "name": "_rewards",
          "type": "uint256"
        }
      ],
      "stateMutability": "view",
      "type": "function"
    },
    {
      "inputs": [
        {
          "internalType": "uint256",
          "name": "_amount",
          "type": "uint256"
        }
      ],
      "name": "getStakeQuote",
      "outputs": [
        {
          "internalType": "uint256",
          "name": "",
          "type": "uint256"
        }
      ],
      "stateMutability": "view",
      "type": "function"
    },
    {
      "inputs": [],
      "name": "getTimeUnit",
      "outputs": [
        {
          "internalType": "uint256",
          "name": "_timeUnit",
          "type": "uint256"
        }
      ],
      "stateMutability": "view",
      "type": "function"
    },
    {
      "inputs": [
        {
          "internalType": "uint256",
          "name": "_amount",
          "type": "uint256"
        }
      ],
      "name": "getUnstakeQuote",
      "outputs": [
        {
          "internalType": "uint256",
          "name": "",
          "type": "uint256"
        }
      ],
      "stateMutability": "view",
      "type": "function"
    },
    {
      "inputs": [
        {
          "internalType": "bytes[]",
          "name": "data",
          "type": "bytes[]"
        }
      ],
      "name": "multicall",
      "outputs": [
        {
          "internalType": "bytes[]",
          "name": "results",
          "type": "bytes[]"
        }
      ],
      "stateMutability": "nonpayable",
      "type": "function"
    },
    {
      "inputs": [],
      "name": "owner",
      "outputs": [
        {
          "internalType": "address",
          "name": "",
          "type": "address"
        }
      ],
      "stateMutability": "view",
      "type": "function"
    },
    {
      "inputs": [],
      "name": "rewardToken",
      "outputs": [
        {
          "internalType": "address",
          "name": "",
          "type": "address"
        }
      ],
      "stateMutability": "view",
      "type": "function"
    },
    {
      "inputs": [],
      "name": "rewardTokenAmount",
      "outputs": [
        {
          "internalType": "uint256",
          "name": "_amount",
          "type": "uint256"
        }
      ],
      "stateMutability": "view",
      "type": "function"
    },
    {
      "inputs": [],
      "name": "rewardTokenDecimals",
      "outputs": [
        {
          "internalType": "uint256",
          "name": "",
          "type": "uint256"
        }
      ],
      "stateMutability": "view",
      "type": "function"
    },
    {
      "inputs": [],
      "name": "senderRewardTokenAmount",
      "outputs": [
        {
          "internalType": "uint256",
          "name": "_amount",
          "type": "uint256"
        }
      ],
      "stateMutability": "view",
      "type": "function"
    },
    {
      "inputs": [],
      "name": "senderStakeTokenAmount",
      "outputs": [
        {
          "internalType": "uint256",
          "name": "_amount",
          "type": "uint256"
        }
      ],
      "stateMutability": "view",
      "type": "function"
    },
    {
      "inputs": [
        {
          "internalType": "string",
          "name": "_uri",
          "type": "string"
        }
      ],
      "name": "setContractURI",
      "outputs": [],
      "stateMutability": "nonpayable",
      "type": "function"
    },
    {
      "inputs": [
        {
          "internalType": "address",
          "name": "_newOwner",
          "type": "address"
        }
      ],
      "name": "setOwner",
      "outputs": [],
      "stateMutability": "nonpayable",
      "type": "function"
    },
    {
      "inputs": [
        {
          "internalType": "uint256",
          "name": "_numerator",
          "type": "uint256"
        },
        {
          "internalType": "uint256",
          "name": "_denominator",
          "type": "uint256"
        }
      ],
      "name": "setRewardRatio",
      "outputs": [],
      "stateMutability": "nonpayable",
      "type": "function"
    },
    {
      "inputs": [
        {
          "internalType": "uint256",
          "name": "_timeUnit",
          "type": "uint256"
        }
      ],
      "name": "setTimeUnit",
      "outputs": [],
      "stateMutability": "nonpayable",
      "type": "function"
    },
    {
      "inputs": [
        {
          "internalType": "uint256",
          "name": "_amount",
          "type": "uint256"
        }
      ],
      "name": "stake",
      "outputs": [],
      "stateMutability": "payable",
      "type": "function"
    },
    {
      "inputs": [],
      "name": "stakeTokenAmount",
      "outputs": [
        {
          "internalType": "uint256",
          "name": "_amount",
          "type": "uint256"
        }
      ],
      "stateMutability": "view",
      "type": "function"
    },
    {
      "inputs": [
        {
          "internalType": "address",
          "name": "",
          "type": "address"
        }
      ],
      "name": "stakers",
      "outputs": [
        {
          "internalType": "uint256",
          "name": "amountStaked",
          "type": "uint256"
        },
        {
          "internalType": "uint256",
          "name": "timeOfLastUpdate",
          "type": "uint256"
        },
        {
          "internalType": "uint256",
          "name": "unclaimedRewards",
          "type": "uint256"
        },
        {
          "internalType": "uint256",
          "name": "conditionIdOflastUpdate",
          "type": "uint256"
        }
      ],
      "stateMutability": "view",
      "type": "function"
    },
    {
      "inputs": [
        {
          "internalType": "uint256",
          "name": "",
          "type": "uint256"
        }
      ],
      "name": "stakersArray",
      "outputs": [
        {
          "internalType": "address",
          "name": "",
          "type": "address"
        }
      ],
      "stateMutability": "view",
      "type": "function"
    },
    {
      "inputs": [],
      "name": "stakingToken",
      "outputs": [
        {
          "internalType": "address",
          "name": "",
          "type": "address"
        }
      ],
      "stateMutability": "view",
      "type": "function"
    },
    {
      "inputs": [],
      "name": "stakingTokenBalance",
      "outputs": [
        {
          "internalType": "uint256",
          "name": "",
          "type": "uint256"
        }
      ],
      "stateMutability": "view",
      "type": "function"
    },
    {
      "inputs": [],
      "name": "stakingTokenDecimals",
      "outputs": [
        {
          "internalType": "uint256",
          "name": "",
          "type": "uint256"
        }
      ],
      "stateMutability": "view",
      "type": "function"
    },
    {
      "inputs": [
        {
          "internalType": "uint256",
          "name": "_amount",
          "type": "uint256"
        }
      ],
      "name": "unstake",
      "outputs": [],
      "stateMutability": "payable",
      "type": "function"
    },
    {
      "inputs": [
        {
          "internalType": "uint256",
          "name": "_amount",
          "type": "uint256"
        }
      ],
      "name": "withdrawRewardTokens",
      "outputs": [],
      "stateMutability": "nonpayable",
      "type": "function"
    },
    {
      "stateMutability": "payable",
      "type": "receive"
    }
  ],
  "bytecode": "0x60a06040523480156200001157600080fd5b50604051620054a0380380620054a08339818101604052810190620000379190620004b6565b82828280838473ffffffffffffffffffffffffffffffffffffffff1663313ce5676040518163ffffffff1660e01b8152600401602060405180830381865afa15801562000088573d6000803e3d6000fd5b505050506040513d601f19601f82011682018060405250810190620000ae919062000550565b60ff168473ffffffffffffffffffffffffffffffffffffffff1663313ce5676040518163ffffffff1660e01b8152600401602060405180830381865afa158015620000fd573d6000803e3d6000fd5b505050506040513d601f19601f8201168201806040525081019062000123919062000550565b60ff166001600281905550600073ffffffffffffffffffffffffffffffffffffffff168373ffffffffffffffffffffffffffffffffffffffff1614158015620001995750600073ffffffffffffffffffffffffffffffffffffffff168473ffffffffffffffffffffffffffffffffffffffff1614155b620001db576040517f08c379a0000000000000000000000000000000000000000000000000000000008152600401620001d290620005e3565b60405180910390fd5b60008214158015620001ee575060008114155b62000230576040517f08c379a0000000000000000000000000000000000000000000000000000000008152600401620002279062000655565b60405180910390fd5b8373ffffffffffffffffffffffffffffffffffffffff1660808173ffffffffffffffffffffffffffffffffffffffff168152505082600360006101000a81548173ffffffffffffffffffffffffffffffffffffffff021916908373ffffffffffffffffffffffffffffffffffffffff160217905550816004819055508060058190555050505050620002c8336200038660201b60201c565b8273ffffffffffffffffffffffffffffffffffffffff168273ffffffffffffffffffffffffffffffffffffffff160362000339576040517f08c379a00000000000000000000000000000000000000000000000000000000081526004016200033090620006ed565b60405180910390fd5b81600b60006101000a81548173ffffffffffffffffffffffffffffffffffffffff021916908373ffffffffffffffffffffffffffffffffffffffff1602179055505050505050506200070f565b6000600160009054906101000a900473ffffffffffffffffffffffffffffffffffffffff16905081600160006101000a81548173ffffffffffffffffffffffffffffffffffffffff021916908373ffffffffffffffffffffffffffffffffffffffff1602179055508173ffffffffffffffffffffffffffffffffffffffff168173ffffffffffffffffffffffffffffffffffffffff167f8292fce18fa69edf4db7b94ea2e58241df0ae57f97e0a6c9b29067028bf92d7660405160405180910390a35050565b600080fd5b600073ffffffffffffffffffffffffffffffffffffffff82169050919050565b60006200047e8262000451565b9050919050565b620004908162000471565b81146200049c57600080fd5b50565b600081519050620004b08162000485565b92915050565b600080600060608486031215620004d257620004d16200044c565b5b6000620004e2868287016200049f565b9350506020620004f5868287016200049f565b925050604062000508868287016200049f565b9150509250925092565b600060ff82169050919050565b6200052a8162000512565b81146200053657600080fd5b50565b6000815190506200054a816200051f565b92915050565b6000602082840312156200056957620005686200044c565b5b6000620005798482850162000539565b91505092915050565b600082825260208201905092915050565b7f6164647265737320300000000000000000000000000000000000000000000000600082015250565b6000620005cb60098362000582565b9150620005d88262000593565b602082019050919050565b60006020820190508181036000830152620005fe81620005bc565b9050919050565b7f646563696d616c73203000000000000000000000000000000000000000000000600082015250565b60006200063d600a8362000582565b91506200064a8262000605565b602082019050919050565b6000602082019050818103600083015262000670816200062e565b9050919050565b7f52657761726420546f6b656e20616e64205374616b696e6720546f6b656e206360008201527f616e27742062652073616d652e00000000000000000000000000000000000000602082015250565b6000620006d5602d8362000582565b9150620006e28262000677565b604082019050919050565b600060208201905081810360008301526200070881620006c6565b9050919050565b608051614d3d62000763600039600081816101f80152818161194f01528181611a1a01528181611dc60152818161224c0152818161238b015281816126ed015281816127a60152612d810152614d3d6000f3fe6080604052600436106101f15760003560e01c806397e1b4bc1161010d578063c3453153116100a0578063d3e8237d1161006f578063d3e8237d14610765578063d68124c714610790578063e639b707146107bb578063e8a3d485146107e6578063f7c618c11461081157610286565b8063c3453153146106a8578063c3b71f20146106e6578063c79cf3a614610711578063cb43b2dd1461073c57610286565b8063a694fc3a116100dc578063a694fc3a146105e7578063ac9650d814610603578063b9f7a7b514610640578063ba46b4931461066b57610286565b806397e1b4bc1461052857806399d056d0146105545780639af05a77146105915780639bdcecd1146105bc57610286565b80636360106f116101855780638da5cb5b116101545780638da5cb5b146104695780639168ae7214610494578063938e3d7b146104d457806393ce5343146104fd57610286565b80636360106f146103bf57806369755806146103e857806372f702f3146104135780638caaa2711461043e57610286565b80632e17de78116101c15780632e17de7814610324578063372500ab1461034057806337eba1ac146103575780635357e9161461038257610286565b80621b79341461028b5780630f7f200d146102b457806313af4035146102df57806316c621e01461030857610286565b36610286577f000000000000000000000000000000000000000000000000000000000000000073ffffffffffffffffffffffffffffffffffffffff163373ffffffffffffffffffffffffffffffffffffffff1614610284576040517f08c379a000000000000000000000000000000000000000000000000000000000815260040161027b90613562565b60405180910390fd5b005b600080fd5b34801561029757600080fd5b506102b260048036038101906102ad91906135cc565b61083c565b005b3480156102c057600080fd5b506102c9610994565b6040516102d6919061361b565b60405180910390f35b3480156102eb57600080fd5b5061030660048036038101906103019190613694565b610a37565b005b610322600480360381019061031d91906136c1565b610a8a565b005b61033e600480360381019061033991906136c1565b610ae9565b005b34801561034c57600080fd5b50610355610b48565b005b34801561036357600080fd5b5061036c610ba5565b604051610379919061361b565b60405180910390f35b34801561038e57600080fd5b506103a960048036038101906103a491906136c1565b610c4a565b6040516103b691906136fd565b60405180910390f35b3480156103cb57600080fd5b506103e660048036038101906103e191906136c1565b610c89565b005b3480156103f457600080fd5b506103fd610dcc565b60405161040a919061361b565b60405180910390f35b34801561041f57600080fd5b50610428610dd6565b60405161043591906136fd565b60405180910390f35b34801561044a57600080fd5b50610453610dfc565b604051610460919061361b565b60405180910390f35b34801561047557600080fd5b5061047e610e02565b60405161048b91906136fd565b60405180910390f35b3480156104a057600080fd5b506104bb60048036038101906104b69190613694565b610e2c565b6040516104cb9493929190613718565b60405180910390f35b3480156104e057600080fd5b506104fb60048036038101906104f691906138a3565b610e5c565b005b34801561050957600080fd5b50610512610eaf565b60405161051f919061361b565b60405180910390f35b34801561053457600080fd5b5061053d610eb9565b60405161054b9291906138ec565b60405180910390f35b34801561056057600080fd5b5061057b600480360381019061057691906136c1565b610f0e565b604051610588919061361b565b60405180910390f35b34801561059d57600080fd5b506105a6610f99565b6040516105b3919061361b565b60405180910390f35b3480156105c857600080fd5b506105d161103c565b6040516105de919061361b565b60405180910390f35b61060160048036038101906105fc91906136c1565b611042565b005b34801561060f57600080fd5b5061062a60048036038101906106259190613975565b6110a1565b6040516106379190613b03565b60405180910390f35b34801561064c57600080fd5b506106556111ad565b604051610662919061361b565b60405180910390f35b34801561067757600080fd5b50610692600480360381019061068d91906136c1565b6111b3565b60405161069f919061361b565b60405180910390f35b3480156106b457600080fd5b506106cf60048036038101906106ca9190613694565b61122b565b6040516106dd9291906138ec565b60405180910390f35b3480156106f257600080fd5b506106fb611283565b604051610708919061361b565b60405180910390f35b34801561071d57600080fd5b50610726611328565b604051610733919061361b565b60405180910390f35b34801561074857600080fd5b50610763600480360381019061075e91906136c1565b611332565b005b34801561077157600080fd5b5061077a611391565b604051610787919061361b565b60405180910390f35b34801561079c57600080fd5b506107a5611434565b6040516107b2919061361b565b60405180910390f35b3480156107c757600080fd5b506107d0611460565b6040516107dd919061361b565b60405180910390f35b3480156107f257600080fd5b506107fb611503565b6040516108089190613b69565b60405180910390f35b34801561081d57600080fd5b50610826611591565b60405161083391906136fd565b60405180910390f35b6108446115b7565b610883576040517f08c379a000000000000000000000000000000000000000000000000000000000815260040161087a90613bd7565b60405180910390fd5b6000600a600060016008546108989190613c26565b81526020019081526020016000206040518060a00160405290816000820154815260200160018201548152602001600282015481526020016003820154815260200160048201548152505090508060200151831415806108fc575080604001518214155b61093b576040517f08c379a000000000000000000000000000000000000000000000000000000000815260040161093290613ca6565b60405180910390fd5b61094a816000015184846115f4565b7feb6684a1e7c9bd2adc792fb253558f022bcbef39fb6ad31dc58cdfefdd5b51908160200151848360400151856040516109879493929190613718565b60405180910390a1505050565b6000600b60009054906101000a900473ffffffffffffffffffffffffffffffffffffffff1673ffffffffffffffffffffffffffffffffffffffff166370a08231336040518263ffffffff1660e01b81526004016109f191906136fd565b602060405180830381865afa158015610a0e573d6000803e3d6000fd5b505050506040513d601f19601f82011682018060405250810190610a329190613cdb565b905090565b610a3f611742565b610a7e576040517f08c379a0000000000000000000000000000000000000000000000000000000008152600401610a7590613bd7565b60405180910390fd5b610a878161177f565b50565b6002805403610ace576040517f08c379a0000000000000000000000000000000000000000000000000000000008152600401610ac590613d54565b60405180910390fd5b60028081905550610ade81611845565b600160028190555050565b6002805403610b2d576040517f08c379a0000000000000000000000000000000000000000000000000000000008152600401610b2490613d54565b60405180910390fd5b60028081905550610b3d81611ae6565b600160028190555050565b6002805403610b8c576040517f08c379a0000000000000000000000000000000000000000000000000000000008152600401610b8390613d54565b60405180910390fd5b60028081905550610b9b611e77565b6001600281905550565b6000600360009054906101000a900473ffffffffffffffffffffffffffffffffffffffff1673ffffffffffffffffffffffffffffffffffffffff1663dd62ed3e33306040518363ffffffff1660e01b8152600401610c04929190613d74565b602060405180830381865afa158015610c21573d6000803e3d6000fd5b505050506040513d601f19601f82011682018060405250810190610c459190613cdb565b905090565b60068181548110610c5a57600080fd5b906000526020600020016000915054906101000a900473ffffffffffffffffffffffffffffffffffffffff1681565b610c916115b7565b610cd0576040517f08c379a0000000000000000000000000000000000000000000000000000000008152600401610cc790613bd7565b60405180910390fd5b6000600a60006001600854610ce59190613c26565b81526020019081526020016000206040518060a001604052908160008201548152602001600182015481526020016002820154815260200160038201548152602001600482015481525050905080600001518203610d78576040517f08c379a0000000000000000000000000000000000000000000000000000000008152600401610d6f90613de9565b60405180910390fd5b610d8b82826020015183604001516115f4565b7fd968de290ed68f978b9e4816f7d4be9ef46189fe8eeb3eeb86199e7229cf2de0816000015183604051610dc09291906138ec565b60405180910390a15050565b6000600e54905090565b600360009054906101000a900473ffffffffffffffffffffffffffffffffffffffff1681565b60075481565b6000600160009054906101000a900473ffffffffffffffffffffffffffffffffffffffff16905090565b60096020528060005260406000206000915090508060000154908060010154908060020154908060030154905084565b610e64612084565b610ea3576040517f08c379a0000000000000000000000000000000000000000000000000000000008152600401610e9a90613bd7565b60405180910390fd5b610eac816120c1565b50565b6000600c54905090565b600080600a60006001600854610ecf9190613c26565b8152602001908152602001600020600101549150600a60006001600854610ef69190613c26565b81526020019081526020016000206002015490509091565b6000808211610f52576040517f08c379a0000000000000000000000000000000000000000000000000000000008152600401610f4990613e55565b60405180910390fd5b60006001600d5484600d54610f679190613e75565b610f719190613ed8565b610f7b9190613c26565b600e54610f889190613f09565b905060008190508092505050919050565b6000600360009054906101000a900473ffffffffffffffffffffffffffffffffffffffff1673ffffffffffffffffffffffffffffffffffffffff166370a08231336040518263ffffffff1660e01b8152600401610ff691906136fd565b602060405180830381865afa158015611013573d6000803e3d6000fd5b505050506040513d601f19601f820116820180604052508101906110379190613cdb565b905090565b60055481565b6002805403611086576040517f08c379a000000000000000000000000000000000000000000000000000000000815260040161107d90613d54565b60405180910390fd5b600280819055506110968161219c565b600160028190555050565b60608282905067ffffffffffffffff8111156110c0576110bf613778565b5b6040519080825280602002602001820160405280156110f357816020015b60608152602001906001900390816110de5790505b50905060005b838390508110156111a6576111753085858481811061111b5761111a613f4b565b5b905060200281019061112d9190613f89565b8080601f016020809104026020016040519081016040528093929190818152602001838380828437600081840152601f19601f82011690508083019250505050505050612508565b82828151811061118857611187613f4b565b5b6020026020010181905250808061119e90613fec565b9150506110f9565b5092915050565b60045481565b60008082116111f7576040517f08c379a00000000000000000000000000000000000000000000000000000000081526004016111ee90613e55565b60405180910390fd5b6000600e54600d546112099190613ed8565b9050600081846112199190613f09565b90506000819050809350505050919050565b600080600960008473ffffffffffffffffffffffffffffffffffffffff1673ffffffffffffffffffffffffffffffffffffffff16815260200190815260200160002060000154915061127c83612535565b9050915091565b6000600b60009054906101000a900473ffffffffffffffffffffffffffffffffffffffff1673ffffffffffffffffffffffffffffffffffffffff1663dd62ed3e33306040518363ffffffff1660e01b81526004016112e2929190613d74565b602060405180830381865afa1580156112ff573d6000803e3d6000fd5b505050506040513d601f19601f820116820180604052508101906113239190613cdb565b905090565b6000600d54905090565b6002805403611376576040517f08c379a000000000000000000000000000000000000000000000000000000000815260040161136d90613d54565b60405180910390fd5b6002808190555061138681612628565b600160028190555050565b6000600b60009054906101000a900473ffffffffffffffffffffffffffffffffffffffff1673ffffffffffffffffffffffffffffffffffffffff166370a08231306040518263ffffffff1660e01b81526004016113ee91906136fd565b602060405180830381865afa15801561140b573d6000803e3d6000fd5b505050506040513d601f19601f8201168201806040525081019061142f9190613cdb565b905090565b6000600a600060016008546114499190613c26565b815260200190815260200160002060000154905090565b6000600360009054906101000a900473ffffffffffffffffffffffffffffffffffffffff1673ffffffffffffffffffffffffffffffffffffffff166370a08231306040518263ffffffff1660e01b81526004016114bd91906136fd565b602060405180830381865afa1580156114da573d6000803e3d6000fd5b505050506040513d601f19601f820116820180604052508101906114fe9190613cdb565b905090565b6000805461151090614063565b80601f016020809104026020016040519081016040528092919081815260200182805461153c90614063565b80156115895780601f1061155e57610100808354040283529160200191611589565b820191906000526020600020905b81548152906001019060200180831161156c57829003601f168201915b505050505081565b600b60009054906101000a900473ffffffffffffffffffffffffffffffffffffffff1681565b60006115c1610e02565b73ffffffffffffffffffffffffffffffffffffffff163373ffffffffffffffffffffffffffffffffffffffff1614905090565b60008103611637576040517f08c379a000000000000000000000000000000000000000000000000000000000815260040161162e906140e0565b60405180910390fd5b6000830361167a576040517f08c379a00000000000000000000000000000000000000000000000000000000081526004016116719061414c565b60405180910390fd5b600060085490506001600860008282546116949190613e75565b925050819055506040518060a001604052808581526020018481526020018381526020014281526020016000815250600a60008381526020019081526020016000206000820151816000015560208201518160010155604082015181600201556060820151816003015560808201518160040155905050600081111561173c5742600a60006001846117269190613c26565b8152602001908152602001600020600401819055505b50505050565b600061174c610e02565b73ffffffffffffffffffffffffffffffffffffffff163373ffffffffffffffffffffffffffffffffffffffff1614905090565b6000600160009054906101000a900473ffffffffffffffffffffffffffffffffffffffff16905081600160006101000a81548173ffffffffffffffffffffffffffffffffffffffff021916908373ffffffffffffffffffffffffffffffffffffffff1602179055508173ffffffffffffffffffffffffffffffffffffffff168173ffffffffffffffffffffffffffffffffffffffff167f8292fce18fa69edf4db7b94ea2e58241df0ae57f97e0a6c9b29067028bf92d7660405160405180910390a35050565b61184d610e02565b73ffffffffffffffffffffffffffffffffffffffff163373ffffffffffffffffffffffffffffffffffffffff16146118ba576040517f08c379a00000000000000000000000000000000000000000000000000000000081526004016118b190613bd7565b60405180910390fd5b600073eeeeeeeeeeeeeeeeeeeeeeeeeeeeeeeeeeeeeeee73ffffffffffffffffffffffffffffffffffffffff16600b60009054906101000a900473ffffffffffffffffffffffffffffffffffffffff1673ffffffffffffffffffffffffffffffffffffffff161461194d57600b60009054906101000a900473ffffffffffffffffffffffffffffffffffffffff1661196f565b7f00000000000000000000000000000000000000000000000000000000000000005b905060008173ffffffffffffffffffffffffffffffffffffffff166370a08231306040518263ffffffff1660e01b81526004016119ac91906136fd565b602060405180830381865afa1580156119c9573d6000803e3d6000fd5b505050506040513d601f19601f820116820180604052508101906119ed9190613cdb565b9050611a3e600b60009054906101000a900473ffffffffffffffffffffffffffffffffffffffff163330867f000000000000000000000000000000000000000000000000000000000000000061288a565b6000818373ffffffffffffffffffffffffffffffffffffffff166370a08231306040518263ffffffff1660e01b8152600401611a7a91906136fd565b602060405180830381865afa158015611a97573d6000803e3d6000fd5b505050506040513d601f19601f82011682018060405250810190611abb9190613cdb565b611ac59190613c26565b905080600c6000828254611ad99190613e75565b9250508190555050505050565b60008103611b29576040517f08c379a0000000000000000000000000000000000000000000000000000000008152600401611b20906141b8565b60405180910390fd5b80600b60009054906101000a900473ffffffffffffffffffffffffffffffffffffffff1673ffffffffffffffffffffffffffffffffffffffff166370a08231336040518263ffffffff1660e01b8152600401611b8591906136fd565b602060405180830381865afa158015611ba2573d6000803e3d6000fd5b505050506040513d601f19601f82011682018060405250810190611bc69190613cdb565b1015611c07576040517f08c379a0000000000000000000000000000000000000000000000000000000008152600401611bfe90614224565b60405180910390fd5b6000600b60009054906101000a900473ffffffffffffffffffffffffffffffffffffffff1673ffffffffffffffffffffffffffffffffffffffff166370a08231306040518263ffffffff1660e01b8152600401611c6491906136fd565b602060405180830381865afa158015611c81573d6000803e3d6000fd5b505050506040513d601f19601f82011682018060405250810190611ca59190613cdb565b9050611cdc600b60009054906101000a900473ffffffffffffffffffffffffffffffffffffffff16611cd5612a8a565b3085612a92565b600081600b60009054906101000a900473ffffffffffffffffffffffffffffffffffffffff1673ffffffffffffffffffffffffffffffffffffffff166370a08231306040518263ffffffff1660e01b8152600401611d3a91906136fd565b602060405180830381865afa158015611d57573d6000803e3d6000fd5b505050506040513d601f19601f82011682018060405250810190611d7b9190613cdb565b611d859190613c26565b90506000611d92826111b3565b9050611dea600360009054906101000a900473ffffffffffffffffffffffffffffffffffffffff1630611dc3612a8a565b847f000000000000000000000000000000000000000000000000000000000000000061288a565b81600e6000828254611dfc9190613c26565b9250508190555080600d6000828254611e159190613c26565b92505081905550611e24612a8a565b73ffffffffffffffffffffffffffffffffffffffff167f6352c5382c4a4578e712449ca65e83cdb392d045dfcf1cad9615189db2da244b85604051611e69919061361b565b60405180910390a250505050565b6000611e89611e84612a8a565b612b05565b60096000611e95612a8a565b73ffffffffffffffffffffffffffffffffffffffff1673ffffffffffffffffffffffffffffffffffffffff16815260200190815260200160002060020154611edd9190613e75565b905060008103611f22576040517f08c379a0000000000000000000000000000000000000000000000000000000008152600401611f1990614290565b60405180910390fd5b4260096000611f2f612a8a565b73ffffffffffffffffffffffffffffffffffffffff1673ffffffffffffffffffffffffffffffffffffffff16815260200190815260200160002060010181905550600060096000611f7e612a8a565b73ffffffffffffffffffffffffffffffffffffffff1673ffffffffffffffffffffffffffffffffffffffff168152602001908152602001600020600201819055506001600854611fce9190613c26565b60096000611fda612a8a565b73ffffffffffffffffffffffffffffffffffffffff1673ffffffffffffffffffffffffffffffffffffffff1681526020019081526020016000206003018190555061202c612026612a8a565b82612cf8565b612034612a8a565b73ffffffffffffffffffffffffffffffffffffffff167ffc30cddea38e2bf4d6ea7d3f9ed3b6ad7f176419f4963bd81318067a4aee73fe82604051612079919061361b565b60405180910390a250565b600061208e610e02565b73ffffffffffffffffffffffffffffffffffffffff163373ffffffffffffffffffffffffffffffffffffffff1614905090565b60008080546120cf90614063565b80601f01602080910402602001604051908101604052809291908181526020018280546120fb90614063565b80156121485780601f1061211d57610100808354040283529160200191612148565b820191906000526020600020905b81548152906001019060200180831161212b57829003601f168201915b50505050509050816000908161215e919061445c565b507fc9c7c3fe08b88b4df9d4d47ef47d2c43d55c025a0ba88ca442580ed9e7348a16818360405161219092919061452e565b60405180910390a15050565b600081036121df576040517f08c379a00000000000000000000000000000000000000000000000000000000081526004016121d6906145b1565b60405180910390fd5b600073eeeeeeeeeeeeeeeeeeeeeeeeeeeeeeeeeeeeeeee73ffffffffffffffffffffffffffffffffffffffff16600360009054906101000a900473ffffffffffffffffffffffffffffffffffffffff1673ffffffffffffffffffffffffffffffffffffffff1603612272577f000000000000000000000000000000000000000000000000000000000000000090506122db565b600034146122b5576040517f08c379a00000000000000000000000000000000000000000000000000000000081526004016122ac9061461d565b60405180910390fd5b600360009054906101000a900473ffffffffffffffffffffffffffffffffffffffff1690505b60008173ffffffffffffffffffffffffffffffffffffffff166370a08231306040518263ffffffff1660e01b815260040161231691906136fd565b602060405180830381865afa158015612333573d6000803e3d6000fd5b505050506040513d601f19601f820116820180604052508101906123579190613cdb565b90506123af600360009054906101000a900473ffffffffffffffffffffffffffffffffffffffff16612387612a8a565b30867f000000000000000000000000000000000000000000000000000000000000000061288a565b6000818373ffffffffffffffffffffffffffffffffffffffff166370a08231306040518263ffffffff1660e01b81526004016123eb91906136fd565b602060405180830381865afa158015612408573d6000803e3d6000fd5b505050506040513d601f19601f8201168201806040525081019061242c9190613cdb565b6124369190613c26565b9050600061244382610f0e565b905061247a600b60009054906101000a900473ffffffffffffffffffffffffffffffffffffffff1630612474612a8a565b84612a92565b81600d600082825461248c9190613e75565b9250508190555080600e60008282546124a59190613e75565b925050819055506124b4612a8a565b73ffffffffffffffffffffffffffffffffffffffff167fb539ca1e5c8d398ddf1c41c30166f33404941683be4683319b57669a93dad4ef836040516124f9919061361b565b60405180910390a25050505050565b606061252d8383604051806060016040528060278152602001614ce160279139612da9565b905092915050565b600080600960008473ffffffffffffffffffffffffffffffffffffffff1673ffffffffffffffffffffffffffffffffffffffff16815260200190815260200160002060000154036125ca57600960008373ffffffffffffffffffffffffffffffffffffffff1673ffffffffffffffffffffffffffffffffffffffff168152602001908152602001600020600201549050612623565b6125d382612b05565b600960008473ffffffffffffffffffffffffffffffffffffffff1673ffffffffffffffffffffffffffffffffffffffff168152602001908152602001600020600201546126209190613e75565b90505b919050565b612630610e02565b73ffffffffffffffffffffffffffffffffffffffff163373ffffffffffffffffffffffffffffffffffffffff161461269d576040517f08c379a000000000000000000000000000000000000000000000000000000000815260040161269490613bd7565b60405180910390fd5b600c5481116126b95780600c546126b49190613c26565b6126bc565b60005b600c81905550612711600b60009054906101000a900473ffffffffffffffffffffffffffffffffffffffff163033847f000000000000000000000000000000000000000000000000000000000000000061288a565b600073eeeeeeeeeeeeeeeeeeeeeeeeeeeeeeeeeeeeeeee73ffffffffffffffffffffffffffffffffffffffff16600360009054906101000a900473ffffffffffffffffffffffffffffffffffffffff1673ffffffffffffffffffffffffffffffffffffffff16146127a457600360009054906101000a900473ffffffffffffffffffffffffffffffffffffffff166127c6565b7f00000000000000000000000000000000000000000000000000000000000000005b90506007548173ffffffffffffffffffffffffffffffffffffffff166370a08231306040518263ffffffff1660e01b815260040161280491906136fd565b602060405180830381865afa158015612821573d6000803e3d6000fd5b505050506040513d601f19601f820116820180604052508101906128459190613cdb565b1015612886576040517f08c379a000000000000000000000000000000000000000000000000000000000815260040161287d90614689565b60405180910390fd5b5050565b6000820315612a835773eeeeeeeeeeeeeeeeeeeeeeeeeeeeeeeeeeeeeeee73ffffffffffffffffffffffffffffffffffffffff168573ffffffffffffffffffffffffffffffffffffffff1603612a75573073ffffffffffffffffffffffffffffffffffffffff168473ffffffffffffffffffffffffffffffffffffffff1603612988578073ffffffffffffffffffffffffffffffffffffffff16632e1a7d4d836040518263ffffffff1660e01b8152600401612946919061361b565b600060405180830381600087803b15801561296057600080fd5b505af1158015612974573d6000803e3d6000fd5b50505050612983838383612e76565b612a70565b3073ffffffffffffffffffffffffffffffffffffffff168373ffffffffffffffffffffffffffffffffffffffff1603612a63573482146129fd576040517f08c379a00000000000000000000000000000000000000000000000000000000081526004016129f4906146f5565b60405180910390fd5b8073ffffffffffffffffffffffffffffffffffffffff1663d0e30db0836040518263ffffffff1660e01b81526004016000604051808303818588803b158015612a4557600080fd5b505af1158015612a59573d6000803e3d6000fd5b5050505050612a6f565b612a6e838383612e76565b5b5b612a82565b612a8185858585612f7a565b5b5b5050505050565b600033905090565b6000810315612aff5773eeeeeeeeeeeeeeeeeeeeeeeeeeeeeeeeeeeeeeee73ffffffffffffffffffffffffffffffffffffffff168473ffffffffffffffffffffffffffffffffffffffff1603612af157612aec8282613046565b612afe565b612afd84848484612f7a565b5b5b50505050565b600080600960008473ffffffffffffffffffffffffffffffffffffffff1673ffffffffffffffffffffffffffffffffffffffff16815260200190815260200160002060405180608001604052908160008201548152602001600182015481526020016002820154815260200160038201548152505090506000816060015190506000600854905060008290505b81811015612cb5576000600a60008381526020019081526020016000206040518060a00160405290816000820154815260200160018201548152602001600282015481526020016003820154815260200160048201548152505090506000848303612c01578560200151612c07565b81606001515b9050600080836080015103612c1c5742612c22565b82608001515b9050600080612c4f89600001518585612c3b9190613c26565b612c459190613f09565b86602001516130f7565b91509150600080612c7e8c8860400151896000015186612c6f9190613ed8565b612c799190613ed8565b61314a565b91509150838015612c8c5750815b612c96578b612c98565b805b9b5050505050505050600181612cae9190613e75565b9050612b92565b50612cce84600554600a612cc99190614848565b6130f7565b905080945050600454600a612ce39190614848565b84612cee9190613ed8565b9350505050919050565b600c54811115612d3d576040517f08c379a0000000000000000000000000000000000000000000000000000000008152600401612d34906148df565b60405180910390fd5b80600c6000828254612d4f9190613c26565b92505081905550612da5600b60009054906101000a900473ffffffffffffffffffffffffffffffffffffffff163084847f000000000000000000000000000000000000000000000000000000000000000061288a565b5050565b6060612db484613179565b612df3576040517f08c379a0000000000000000000000000000000000000000000000000000000008152600401612dea90614971565b60405180910390fd5b6000808573ffffffffffffffffffffffffffffffffffffffff1685604051612e1b91906149cd565b600060405180830381855af49150503d8060008114612e56576040519150601f19603f3d011682016040523d82523d6000602084013e612e5b565b606091505b5091509150612e6b82828661319c565b925050509392505050565b60008373ffffffffffffffffffffffffffffffffffffffff1683604051612e9c90614a0a565b60006040518083038185875af1925050503d8060008114612ed9576040519150601f19603f3d011682016040523d82523d6000602084013e612ede565b606091505b5050905080612f74578173ffffffffffffffffffffffffffffffffffffffff1663d0e30db0846040518263ffffffff1660e01b81526004016000604051808303818588803b158015612f2f57600080fd5b505af1158015612f43573d6000803e3d6000fd5b5050505050612f7384848473ffffffffffffffffffffffffffffffffffffffff166132039092919063ffffffff16565b5b50505050565b8173ffffffffffffffffffffffffffffffffffffffff168373ffffffffffffffffffffffffffffffffffffffff160315613040573073ffffffffffffffffffffffffffffffffffffffff168373ffffffffffffffffffffffffffffffffffffffff16036130115761300c82828673ffffffffffffffffffffffffffffffffffffffff166132039092919063ffffffff16565b61303f565b61303e8383838773ffffffffffffffffffffffffffffffffffffffff16613289909392919063ffffffff16565b5b5b50505050565b60008273ffffffffffffffffffffffffffffffffffffffff168260405161306c90614a0a565b60006040518083038185875af1925050503d80600081146130a9576040519150601f19603f3d011682016040523d82523d6000602084013e6130ae565b606091505b50509050806130f2576040517f08c379a00000000000000000000000000000000000000000000000000000000081526004016130e990614a6b565b60405180910390fd5b505050565b6000806000840361310f576001600091509150613143565b600083850290508385828161312757613126613ea9565b5b041461313a576000809250925050613143565b60018192509250505b9250929050565b6000806000838501905084811015613169576000809250925050613172565b60018192509250505b9250929050565b6000808273ffffffffffffffffffffffffffffffffffffffff163b119050919050565b606083156131ac578290506131fc565b6000835111156131bf5782518084602001fd5b816040517f08c379a00000000000000000000000000000000000000000000000000000000081526004016131f39190613b69565b60405180910390fd5b9392505050565b6132848363a9059cbb60e01b8484604051602401613222929190614a8b565b604051602081830303815290604052907bffffffffffffffffffffffffffffffffffffffffffffffffffffffff19166020820180517bffffffffffffffffffffffffffffffffffffffffffffffffffffffff8381831617835250505050613312565b505050565b61330c846323b872dd60e01b8585856040516024016132aa93929190614ab4565b604051602081830303815290604052907bffffffffffffffffffffffffffffffffffffffffffffffffffffffff19166020820180517bffffffffffffffffffffffffffffffffffffffffffffffffffffffff8381831617835250505050613312565b50505050565b6000613374826040518060400160405280602081526020017f5361666545524332303a206c6f772d6c6576656c2063616c6c206661696c65648152508573ffffffffffffffffffffffffffffffffffffffff166133d99092919063ffffffff16565b90506000815111156133d457808060200190518101906133949190614b23565b6133d3576040517f08c379a00000000000000000000000000000000000000000000000000000000081526004016133ca90614bc2565b60405180910390fd5b5b505050565b60606133e884846000856133f1565b90509392505050565b606082471015613436576040517f08c379a000000000000000000000000000000000000000000000000000000000815260040161342d90614c54565b60405180910390fd5b61343f85613179565b61347e576040517f08c379a000000000000000000000000000000000000000000000000000000000815260040161347590614cc0565b60405180910390fd5b6000808673ffffffffffffffffffffffffffffffffffffffff1685876040516134a791906149cd565b60006040518083038185875af1925050503d80600081146134e4576040519150601f19603f3d011682016040523d82523d6000602084013e6134e9565b606091505b50915091506134f982828661319c565b92505050949350505050565b600082825260208201905092915050565b7f63616c6c6572206e6f74206e617469766520746f6b656e20777261707065722e600082015250565b600061354c602083613505565b915061355782613516565b602082019050919050565b6000602082019050818103600083015261357b8161353f565b9050919050565b6000604051905090565b600080fd5b600080fd5b6000819050919050565b6135a981613596565b81146135b457600080fd5b50565b6000813590506135c6816135a0565b92915050565b600080604083850312156135e3576135e261358c565b5b60006135f1858286016135b7565b9250506020613602858286016135b7565b9150509250929050565b61361581613596565b82525050565b6000602082019050613630600083018461360c565b92915050565b600073ffffffffffffffffffffffffffffffffffffffff82169050919050565b600061366182613636565b9050919050565b61367181613656565b811461367c57600080fd5b50565b60008135905061368e81613668565b92915050565b6000602082840312156136aa576136a961358c565b5b60006136b88482850161367f565b91505092915050565b6000602082840312156136d7576136d661358c565b5b60006136e5848285016135b7565b91505092915050565b6136f781613656565b82525050565b600060208201905061371260008301846136ee565b92915050565b600060808201905061372d600083018761360c565b61373a602083018661360c565b613747604083018561360c565b613754606083018461360c565b95945050505050565b600080fd5b600080fd5b6000601f19601f8301169050919050565b7f4e487b7100000000000000000000000000000000000000000000000000000000600052604160045260246000fd5b6137b082613767565b810181811067ffffffffffffffff821117156137cf576137ce613778565b5b80604052505050565b60006137e2613582565b90506137ee82826137a7565b919050565b600067ffffffffffffffff82111561380e5761380d613778565b5b61381782613767565b9050602081019050919050565b82818337600083830152505050565b6000613846613841846137f3565b6137d8565b90508281526020810184848401111561386257613861613762565b5b61386d848285613824565b509392505050565b600082601f83011261388a5761388961375d565b5b813561389a848260208601613833565b91505092915050565b6000602082840312156138b9576138b861358c565b5b600082013567ffffffffffffffff8111156138d7576138d6613591565b5b6138e384828501613875565b91505092915050565b6000604082019050613901600083018561360c565b61390e602083018461360c565b9392505050565b600080fd5b600080fd5b60008083601f8401126139355761393461375d565b5b8235905067ffffffffffffffff81111561395257613951613915565b5b60208301915083602082028301111561396e5761396d61391a565b5b9250929050565b6000806020838503121561398c5761398b61358c565b5b600083013567ffffffffffffffff8111156139aa576139a9613591565b5b6139b68582860161391f565b92509250509250929050565b600081519050919050565b600082825260208201905092915050565b6000819050602082019050919050565b600081519050919050565b600082825260208201905092915050565b60005b83811015613a28578082015181840152602081019050613a0d565b60008484015250505050565b6000613a3f826139ee565b613a4981856139f9565b9350613a59818560208601613a0a565b613a6281613767565b840191505092915050565b6000613a798383613a34565b905092915050565b6000602082019050919050565b6000613a99826139c2565b613aa381856139cd565b935083602082028501613ab5856139de565b8060005b85811015613af15784840389528151613ad28582613a6d565b9450613add83613a81565b925060208a01995050600181019050613ab9565b50829750879550505050505092915050565b60006020820190508181036000830152613b1d8184613a8e565b905092915050565b600081519050919050565b6000613b3b82613b25565b613b458185613505565b9350613b55818560208601613a0a565b613b5e81613767565b840191505092915050565b60006020820190508181036000830152613b838184613b30565b905092915050565b7f4e6f7420617574686f72697a6564000000000000000000000000000000000000600082015250565b6000613bc1600e83613505565b9150613bcc82613b8b565b602082019050919050565b60006020820190508181036000830152613bf081613bb4565b9050919050565b7f4e487b7100000000000000000000000000000000000000000000000000000000600052601160045260246000fd5b6000613c3182613596565b9150613c3c83613596565b9250828203905081811115613c5457613c53613bf7565b5b92915050565b7f52657761726420726174696f20756e6368616e6765642e000000000000000000600082015250565b6000613c90601783613505565b9150613c9b82613c5a565b602082019050919050565b60006020820190508181036000830152613cbf81613c83565b9050919050565b600081519050613cd5816135a0565b92915050565b600060208284031215613cf157613cf061358c565b5b6000613cff84828501613cc6565b91505092915050565b7f5265656e7472616e637947756172643a207265656e7472616e742063616c6c00600082015250565b6000613d3e601f83613505565b9150613d4982613d08565b602082019050919050565b60006020820190508181036000830152613d6d81613d31565b9050919050565b6000604082019050613d8960008301856136ee565b613d9660208301846136ee565b9392505050565b7f54696d652d756e697420756e6368616e6765642e000000000000000000000000600082015250565b6000613dd3601483613505565b9150613dde82613d9d565b602082019050919050565b60006020820190508181036000830152613e0281613dc6565b9050919050565b7f416d6f756e74206d7573742062652067726561746572207468616e207a65726f600082015250565b6000613e3f602083613505565b9150613e4a82613e09565b602082019050919050565b60006020820190508181036000830152613e6e81613e32565b9050919050565b6000613e8082613596565b9150613e8b83613596565b9250828201905080821115613ea357613ea2613bf7565b5b92915050565b7f4e487b7100000000000000000000000000000000000000000000000000000000600052601260045260246000fd5b6000613ee382613596565b9150613eee83613596565b925082613efe57613efd613ea9565b5b828204905092915050565b6000613f1482613596565b9150613f1f83613596565b9250828202613f2d81613596565b91508282048414831517613f4457613f43613bf7565b5b5092915050565b7f4e487b7100000000000000000000000000000000000000000000000000000000600052603260045260246000fd5b600080fd5b600080fd5b600080fd5b60008083356001602003843603038112613fa657613fa5613f7a565b5b80840192508235915067ffffffffffffffff821115613fc857613fc7613f7f565b5b602083019250600182023603831315613fe457613fe3613f84565b5b509250929050565b6000613ff782613596565b91507fffffffffffffffffffffffffffffffffffffffffffffffffffffffffffffffff820361402957614028613bf7565b5b600182019050919050565b7f4e487b7100000000000000000000000000000000000000000000000000000000600052602260045260246000fd5b6000600282049050600182168061407b57607f821691505b60208210810361408e5761408d614034565b5b50919050565b7f6469766964652062792030000000000000000000000000000000000000000000600082015250565b60006140ca600b83613505565b91506140d582614094565b602082019050919050565b600060208201905081810360008301526140f9816140bd565b9050919050565b7f74696d652d756e69742063616e27742062652030000000000000000000000000600082015250565b6000614136601483613505565b915061414182614100565b602082019050919050565b6000602082019050818103600083015261416581614129565b9050919050565b7f556e7374616b696e67203020746f6b656e730000000000000000000000000000600082015250565b60006141a2601283613505565b91506141ad8261416c565b602082019050919050565b600060208201905081810360008301526141d181614195565b9050919050565b7f556e7374616b696e67206d6f7265207468616e206f776e656400000000000000600082015250565b600061420e601983613505565b9150614219826141d8565b602082019050919050565b6000602082019050818103600083015261423d81614201565b9050919050565b7f4e6f207265776172647300000000000000000000000000000000000000000000600082015250565b600061427a600a83613505565b915061428582614244565b602082019050919050565b600060208201905081810360008301526142a98161426d565b9050919050565b60008190508160005260206000209050919050565b60006020601f8301049050919050565b600082821b905092915050565b6000600883026143127fffffffffffffffffffffffffffffffffffffffffffffffffffffffffffffffff826142d5565b61431c86836142d5565b95508019841693508086168417925050509392505050565b6000819050919050565b600061435961435461434f84613596565b614334565b613596565b9050919050565b6000819050919050565b6143738361433e565b61438761437f82614360565b8484546142e2565b825550505050565b600090565b61439c61438f565b6143a781848461436a565b505050565b5b818110156143cb576143c0600082614394565b6001810190506143ad565b5050565b601f821115614410576143e1816142b0565b6143ea846142c5565b810160208510156143f9578190505b61440d614405856142c5565b8301826143ac565b50505b505050565b600082821c905092915050565b600061443360001984600802614415565b1980831691505092915050565b600061444c8383614422565b9150826002028217905092915050565b61446582613b25565b67ffffffffffffffff81111561447e5761447d613778565b5b6144888254614063565b6144938282856143cf565b600060209050601f8311600181146144c657600084156144b4578287015190505b6144be8582614440565b865550614526565b601f1984166144d4866142b0565b60005b828110156144fc578489015182556001820191506020850194506020810190506144d7565b868310156145195784890151614515601f891682614422565b8355505b6001600288020188555050505b505050505050565b600060408201905081810360008301526145488185613b30565b9050818103602083015261455c8184613b30565b90509392505050565b7f5374616b696e67203020746f6b656e7300000000000000000000000000000000600082015250565b600061459b601083613505565b91506145a682614565565b602082019050919050565b600060208201905081810360008301526145ca8161458e565b9050919050565b7f56616c7565206e6f742030000000000000000000000000000000000000000000600082015250565b6000614607600b83613505565b9150614612826145d1565b602082019050919050565b60006020820190508181036000830152614636816145fa565b9050919050565b7f5374616b696e6720746f6b656e2062616c616e636520726564756365642e0000600082015250565b6000614673601e83613505565b915061467e8261463d565b602082019050919050565b600060208201905081810360008301526146a281614666565b9050919050565b7f6d73672e76616c756520213d20616d6f756e7400000000000000000000000000600082015250565b60006146df601383613505565b91506146ea826146a9565b602082019050919050565b6000602082019050818103600083015261470e816146d2565b9050919050565b60008160011c9050919050565b6000808291508390505b600185111561476c5780860481111561474857614747613bf7565b5b60018516156147575780820291505b808102905061476585614715565b945061472c565b94509492505050565b6000826147855760019050614841565b816147935760009050614841565b81600181146147a957600281146147b3576147e2565b6001915050614841565b60ff8411156147c5576147c4613bf7565b5b8360020a9150848211156147dc576147db613bf7565b5b50614841565b5060208310610133831016604e8410600b84101617156148175782820a90508381111561481257614811613bf7565b5b614841565b6148248484846001614722565b9250905081840481111561483b5761483a613bf7565b5b81810290505b9392505050565b600061485382613596565b915061485e83613596565b925061488b7fffffffffffffffffffffffffffffffffffffffffffffffffffffffffffffffff8484614775565b905092915050565b7f4e6f7420656e6f7567682072657761726420746f6b656e730000000000000000600082015250565b60006148c9601883613505565b91506148d482614893565b602082019050919050565b600060208201905081810360008301526148f8816148bc565b9050919050565b7f416464726573733a2064656c65676174652063616c6c20746f206e6f6e2d636f60008201527f6e74726163740000000000000000000000000000000000000000000000000000602082015250565b600061495b602683613505565b9150614966826148ff565b604082019050919050565b6000602082019050818103600083015261498a8161494e565b9050919050565b600081905092915050565b60006149a7826139ee565b6149b18185614991565b93506149c1818560208601613a0a565b80840191505092915050565b60006149d9828461499c565b915081905092915050565b50565b60006149f4600083614991565b91506149ff826149e4565b600082019050919050565b6000614a15826149e7565b9150819050919050565b7f6e617469766520746f6b656e207472616e73666572206661696c656400000000600082015250565b6000614a55601c83613505565b9150614a6082614a1f565b602082019050919050565b60006020820190508181036000830152614a8481614a48565b9050919050565b6000604082019050614aa060008301856136ee565b614aad602083018461360c565b9392505050565b6000606082019050614ac960008301866136ee565b614ad660208301856136ee565b614ae3604083018461360c565b949350505050565b60008115159050919050565b614b0081614aeb565b8114614b0b57600080fd5b50565b600081519050614b1d81614af7565b92915050565b600060208284031215614b3957614b3861358c565b5b6000614b4784828501614b0e565b91505092915050565b7f5361666545524332303a204552433230206f7065726174696f6e20646964206e60008201527f6f74207375636365656400000000000000000000000000000000000000000000602082015250565b6000614bac602a83613505565b9150614bb782614b50565b604082019050919050565b60006020820190508181036000830152614bdb81614b9f565b9050919050565b7f416464726573733a20696e73756666696369656e742062616c616e636520666f60008201527f722063616c6c0000000000000000000000000000000000000000000000000000602082015250565b6000614c3e602683613505565b9150614c4982614be2565b604082019050919050565b60006020820190508181036000830152614c6d81614c31565b9050919050565b7f416464726573733a2063616c6c20746f206e6f6e2d636f6e7472616374000000600082015250565b6000614caa601d83613505565b9150614cb582614c74565b602082019050919050565b60006020820190508181036000830152614cd981614c9d565b905091905056fe416464726573733a206c6f772d6c6576656c2064656c65676174652063616c6c206661696c6564a2646970667358221220b2cd4148db5b783c3ff5eeb666cdbba2bb723cd782922eba31428568cfc8715664736f6c63430008120033",
  "linkReferences": {},
  "deployedLinkReferences": {}
}