{
  "_format": "hh-sol-artifact-1",
  "contractName": "Staking20Base",
  "sourceName": "@thirdweb-dev/contracts/base/Staking20Base.sol",
  "abi": [
    {
      "inputs": [
        {
          "internalType": "address",
          "name": "_stakingToken",
          "type": "address"
        },
        {
          "internalType": "address",
          "name": "_rewardToken",
          "type": "address"
        },
        {
          "internalType": "address",
          "name": "_nativeTokenWrapper",
          "type": "address"
        }
      ],
      "stateMutability": "nonpayable",
      "type": "constructor"
    },
    {
      "anonymous": false,
      "inputs": [
        {
          "indexed": false,
          "internalType": "string",
          "name": "prevURI",
          "type": "string"
        },
        {
          "indexed": false,
          "internalType": "string",
          "name": "newURI",
          "type": "string"
        }
      ],
      "name": "ContractURIUpdated",
      "type": "event"
    },
    {
      "anonymous": false,
      "inputs": [
        {
          "indexed": true,
          "internalType": "address",
          "name": "prevOwner",
          "type": "address"
        },
        {
          "indexed": true,
          "internalType": "address",
          "name": "newOwner",
          "type": "address"
        }
      ],
      "name": "OwnerUpdated",
      "type": "event"
    },
    {
      "anonymous": false,
      "inputs": [
        {
          "indexed": true,
          "internalType": "address",
          "name": "staker",
          "type": "address"
        },
        {
          "indexed": false,
          "internalType": "uint256",
          "name": "rewardAmount",
          "type": "uint256"
        }
      ],
      "name": "RewardsClaimed",
      "type": "event"
    },
    {
      "anonymous": false,
      "inputs": [
        {
          "indexed": true,
          "internalType": "address",
          "name": "staker",
          "type": "address"
        },
        {
          "indexed": false,
          "internalType": "uint256",
          "name": "amount",
          "type": "uint256"
        }
      ],
      "name": "TokensStaked",
      "type": "event"
    },
    {
      "anonymous": false,
      "inputs": [
        {
          "indexed": true,
          "internalType": "address",
          "name": "staker",
          "type": "address"
        },
        {
          "indexed": false,
          "internalType": "uint256",
          "name": "amount",
          "type": "uint256"
        }
      ],
      "name": "TokensWithdrawn",
      "type": "event"
    },
    {
      "anonymous": false,
      "inputs": [
        {
          "indexed": false,
          "internalType": "uint256",
          "name": "oldAmount",
          "type": "uint256"
        },
        {
          "indexed": false,
          "internalType": "uint256",
          "name": "newAmount",
          "type": "uint256"
        }
      ],
      "name": "UpdatedMinStakeAmount",
      "type": "event"
    },
    {
      "anonymous": false,
      "inputs": [
        {
          "indexed": false,
          "internalType": "uint256",
          "name": "oldNumerator",
          "type": "uint256"
        },
        {
          "indexed": false,
          "internalType": "uint256",
          "name": "newNumerator",
          "type": "uint256"
        },
        {
          "indexed": false,
          "internalType": "uint256",
          "name": "oldDenominator",
          "type": "uint256"
        },
        {
          "indexed": false,
          "internalType": "uint256",
          "name": "newDenominator",
          "type": "uint256"
        }
      ],
      "name": "UpdatedRewardRatio",
      "type": "event"
    },
    {
      "anonymous": false,
      "inputs": [
        {
          "indexed": false,
          "internalType": "uint256",
          "name": "oldTimeUnit",
          "type": "uint256"
        },
        {
          "indexed": false,
          "internalType": "uint256",
          "name": "newTimeUnit",
          "type": "uint256"
        }
      ],
      "name": "UpdatedTimeUnit",
      "type": "event"
    },
    {
      "inputs": [],
      "name": "claimRewards",
      "outputs": [],
      "stateMutability": "nonpayable",
      "type": "function"
    },
    {
      "inputs": [],
      "name": "contractURI",
      "outputs": [
        {
          "internalType": "string",
          "name": "",
          "type": "string"
        }
      ],
      "stateMutability": "view",
      "type": "function"
    },
    {
      "inputs": [
        {
          "internalType": "uint256",
          "name": "_amount",
          "type": "uint256"
        }
      ],
      "name": "depositRewardTokens",
      "outputs": [],
      "stateMutability": "payable",
      "type": "function"
    },
    {
      "inputs": [],
      "name": "getRewardRatio",
      "outputs": [
        {
          "internalType": "uint256",
          "name": "_numerator",
          "type": "uint256"
        },
        {
          "internalType": "uint256",
          "name": "_denominator",
          "type": "uint256"
        }
      ],
      "stateMutability": "view",
      "type": "function"
    },
    {
      "inputs": [],
      "name": "getRewardTokenBalance",
      "outputs": [
        {
          "internalType": "uint256",
          "name": "",
          "type": "uint256"
        }
      ],
      "stateMutability": "view",
      "type": "function"
    },
    {
      "inputs": [
        {
          "internalType": "address",
          "name": "_staker",
          "type": "address"
        }
      ],
      "name": "getStakeInfo",
      "outputs": [
        {
          "internalType": "uint256",
          "name": "_tokensStaked",
          "type": "uint256"
        },
        {
          "internalType": "uint256",
          "name": "_rewards",
          "type": "uint256"
        }
      ],
      "stateMutability": "view",
      "type": "function"
    },
    {
      "inputs": [],
      "name": "getTimeUnit",
      "outputs": [
        {
          "internalType": "uint256",
          "name": "_timeUnit",
          "type": "uint256"
        }
      ],
      "stateMutability": "view",
      "type": "function"
    },
    {
      "inputs": [
        {
          "internalType": "bytes[]",
          "name": "data",
          "type": "bytes[]"
        }
      ],
      "name": "multicall",
      "outputs": [
        {
          "internalType": "bytes[]",
          "name": "results",
          "type": "bytes[]"
        }
      ],
      "stateMutability": "nonpayable",
      "type": "function"
    },
    {
      "inputs": [],
      "name": "owner",
      "outputs": [
        {
          "internalType": "address",
          "name": "",
          "type": "address"
        }
      ],
      "stateMutability": "view",
      "type": "function"
    },
    {
      "inputs": [],
      "name": "rewardToken",
      "outputs": [
        {
          "internalType": "address",
          "name": "",
          "type": "address"
        }
      ],
      "stateMutability": "view",
      "type": "function"
    },
    {
      "inputs": [],
      "name": "rewardTokenDecimals",
      "outputs": [
        {
          "internalType": "uint256",
          "name": "",
          "type": "uint256"
        }
      ],
      "stateMutability": "view",
      "type": "function"
    },
    {
      "inputs": [
        {
          "internalType": "string",
          "name": "_uri",
          "type": "string"
        }
      ],
      "name": "setContractURI",
      "outputs": [],
      "stateMutability": "nonpayable",
      "type": "function"
    },
    {
      "inputs": [
        {
          "internalType": "address",
          "name": "_newOwner",
          "type": "address"
        }
      ],
      "name": "setOwner",
      "outputs": [],
      "stateMutability": "nonpayable",
      "type": "function"
    },
    {
      "inputs": [
        {
          "internalType": "uint256",
          "name": "_numerator",
          "type": "uint256"
        },
        {
          "internalType": "uint256",
          "name": "_denominator",
          "type": "uint256"
        }
      ],
      "name": "setRewardRatio",
      "outputs": [],
      "stateMutability": "nonpayable",
      "type": "function"
    },
    {
      "inputs": [
        {
          "internalType": "uint256",
          "name": "_timeUnit",
          "type": "uint256"
        }
      ],
      "name": "setTimeUnit",
      "outputs": [],
      "stateMutability": "nonpayable",
      "type": "function"
    },
    {
      "inputs": [
        {
          "internalType": "uint256",
          "name": "_amount",
          "type": "uint256"
        }
      ],
      "name": "stake",
      "outputs": [],
      "stateMutability": "payable",
      "type": "function"
    },
    {
      "inputs": [
        {
          "internalType": "address",
          "name": "",
          "type": "address"
        }
      ],
      "name": "stakers",
      "outputs": [
        {
          "internalType": "uint256",
          "name": "amountStaked",
          "type": "uint256"
        },
        {
          "internalType": "uint256",
          "name": "timeOfLastUpdate",
          "type": "uint256"
        },
        {
          "internalType": "uint256",
          "name": "unclaimedRewards",
          "type": "uint256"
        },
        {
          "internalType": "uint256",
          "name": "conditionIdOflastUpdate",
          "type": "uint256"
        }
      ],
      "stateMutability": "view",
      "type": "function"
    },
    {
      "inputs": [
        {
          "internalType": "uint256",
          "name": "",
          "type": "uint256"
        }
      ],
      "name": "stakersArray",
      "outputs": [
        {
          "internalType": "address",
          "name": "",
          "type": "address"
        }
      ],
      "stateMutability": "view",
      "type": "function"
    },
    {
      "inputs": [],
      "name": "stakingToken",
      "outputs": [
        {
          "internalType": "address",
          "name": "",
          "type": "address"
        }
      ],
      "stateMutability": "view",
      "type": "function"
    },
    {
      "inputs": [],
      "name": "stakingTokenBalance",
      "outputs": [
        {
          "internalType": "uint256",
          "name": "",
          "type": "uint256"
        }
      ],
      "stateMutability": "view",
      "type": "function"
    },
    {
      "inputs": [],
      "name": "stakingTokenDecimals",
      "outputs": [
        {
          "internalType": "uint256",
          "name": "",
          "type": "uint256"
        }
      ],
      "stateMutability": "view",
      "type": "function"
    },
    {
      "inputs": [
        {
          "internalType": "uint256",
          "name": "_amount",
          "type": "uint256"
        }
      ],
      "name": "unstake",
      "outputs": [],
      "stateMutability": "payable",
      "type": "function"
    },
    {
      "inputs": [
        {
          "internalType": "uint256",
          "name": "_amount",
          "type": "uint256"
        }
      ],
      "name": "withdrawRewardTokens",
      "outputs": [],
      "stateMutability": "nonpayable",
      "type": "function"
    },
    {
      "stateMutability": "payable",
      "type": "receive"
    }
  ],
  "bytecode": "0x60a06040523480156200001157600080fd5b5060405162004e0e38038062004e0e8339818101604052810190620000379190620004b0565b80838473ffffffffffffffffffffffffffffffffffffffff1663313ce5676040518163ffffffff1660e01b8152600401602060405180830381865afa15801562000085573d6000803e3d6000fd5b505050506040513d601f19601f82011682018060405250810190620000ab91906200054a565b60ff168473ffffffffffffffffffffffffffffffffffffffff1663313ce5676040518163ffffffff1660e01b8152600401602060405180830381865afa158015620000fa573d6000803e3d6000fd5b505050506040513d601f19601f820116820180604052508101906200012091906200054a565b60ff166001600281905550600073ffffffffffffffffffffffffffffffffffffffff168373ffffffffffffffffffffffffffffffffffffffff1614158015620001965750600073ffffffffffffffffffffffffffffffffffffffff168473ffffffffffffffffffffffffffffffffffffffff1614155b620001d8576040517f08c379a0000000000000000000000000000000000000000000000000000000008152600401620001cf90620005dd565b60405180910390fd5b60008214158015620001eb575060008114155b6200022d576040517f08c379a000000000000000000000000000000000000000000000000000000000815260040162000224906200064f565b60405180910390fd5b8373ffffffffffffffffffffffffffffffffffffffff1660808173ffffffffffffffffffffffffffffffffffffffff168152505082600360006101000a81548173ffffffffffffffffffffffffffffffffffffffff021916908373ffffffffffffffffffffffffffffffffffffffff160217905550816004819055508060058190555050505050620002c5336200038060201b60201c565b8273ffffffffffffffffffffffffffffffffffffffff168273ffffffffffffffffffffffffffffffffffffffff160362000336576040517f08c379a00000000000000000000000000000000000000000000000000000000081526004016200032d90620006e7565b60405180910390fd5b81600b60006101000a81548173ffffffffffffffffffffffffffffffffffffffff021916908373ffffffffffffffffffffffffffffffffffffffff16021790555050505062000709565b6000600160009054906101000a900473ffffffffffffffffffffffffffffffffffffffff16905081600160006101000a81548173ffffffffffffffffffffffffffffffffffffffff021916908373ffffffffffffffffffffffffffffffffffffffff1602179055508173ffffffffffffffffffffffffffffffffffffffff168173ffffffffffffffffffffffffffffffffffffffff167f8292fce18fa69edf4db7b94ea2e58241df0ae57f97e0a6c9b29067028bf92d7660405160405180910390a35050565b600080fd5b600073ffffffffffffffffffffffffffffffffffffffff82169050919050565b600062000478826200044b565b9050919050565b6200048a816200046b565b81146200049657600080fd5b50565b600081519050620004aa816200047f565b92915050565b600080600060608486031215620004cc57620004cb62000446565b5b6000620004dc8682870162000499565b9350506020620004ef8682870162000499565b9250506040620005028682870162000499565b9150509250925092565b600060ff82169050919050565b62000524816200050c565b81146200053057600080fd5b50565b600081519050620005448162000519565b92915050565b60006020828403121562000563576200056262000446565b5b6000620005738482850162000533565b91505092915050565b600082825260208201905092915050565b7f6164647265737320300000000000000000000000000000000000000000000000600082015250565b6000620005c56009836200057c565b9150620005d2826200058d565b602082019050919050565b60006020820190508181036000830152620005f881620005b6565b9050919050565b7f646563696d616c73203000000000000000000000000000000000000000000000600082015250565b600062000637600a836200057c565b91506200064482620005ff565b602082019050919050565b600060208201905081810360008301526200066a8162000628565b9050919050565b7f52657761726420546f6b656e20616e64205374616b696e6720546f6b656e206360008201527f616e27742062652073616d652e00000000000000000000000000000000000000602082015250565b6000620006cf602d836200057c565b9150620006dc8262000671565b604082019050919050565b600060208201905081810360008301526200070281620006c0565b9050919050565b6080516146b16200075d6000396000818161014a015281816111e2015281816112ad015281816116de01528181611b3001528181611deb015281816121510152818161220a015261287801526146b16000f3fe6080604052600436106101435760003560e01c8063938e3d7b116100b6578063b9f7a7b51161006f578063b9f7a7b5146104a9578063c3453153146104d4578063cb43b2dd14610512578063d68124c71461053b578063e8a3d48514610566578063f7c618c114610591576101d8565b8063938e3d7b146103a557806393ce5343146103ce57806397e1b4bc146103f95780639bdcecd114610425578063a694fc3a14610450578063ac9650d81461046c576101d8565b80635357e916116101085780635357e9161461027e5780636360106f146102bb57806372f702f3146102e45780638caaa2711461030f5780638da5cb5b1461033a5780639168ae7214610365576101d8565b80621b7934146101dd57806313af40351461020657806316c621e01461022f5780632e17de781461024b578063372500ab14610267576101d8565b366101d8577f000000000000000000000000000000000000000000000000000000000000000073ffffffffffffffffffffffffffffffffffffffff163373ffffffffffffffffffffffffffffffffffffffff16146101d6576040517f08c379a00000000000000000000000000000000000000000000000000000000081526004016101cd90612fa8565b60405180910390fd5b005b600080fd5b3480156101e957600080fd5b5061020460048036038101906101ff9190613012565b6105bc565b005b34801561021257600080fd5b5061022d600480360381019061022891906130b0565b610714565b005b610249600480360381019061024491906130dd565b610767565b005b610265600480360381019061026091906130dd565b6107c6565b005b34801561027357600080fd5b5061027c610825565b005b34801561028a57600080fd5b506102a560048036038101906102a091906130dd565b610882565b6040516102b29190613119565b60405180910390f35b3480156102c757600080fd5b506102e260048036038101906102dd91906130dd565b6108c1565b005b3480156102f057600080fd5b506102f9610a04565b6040516103069190613119565b60405180910390f35b34801561031b57600080fd5b50610324610a2a565b6040516103319190613143565b60405180910390f35b34801561034657600080fd5b5061034f610a30565b60405161035c9190613119565b60405180910390f35b34801561037157600080fd5b5061038c600480360381019061038791906130b0565b610a5a565b60405161039c949392919061315e565b60405180910390f35b3480156103b157600080fd5b506103cc60048036038101906103c791906132e9565b610a8a565b005b3480156103da57600080fd5b506103e3610add565b6040516103f09190613143565b60405180910390f35b34801561040557600080fd5b5061040e610ae7565b60405161041c929190613332565b60405180910390f35b34801561043157600080fd5b5061043a610b3c565b6040516104479190613143565b60405180910390f35b61046a600480360381019061046591906130dd565b610b42565b005b34801561047857600080fd5b50610493600480360381019061048e91906133bb565b610ba1565b6040516104a09190613549565b60405180910390f35b3480156104b557600080fd5b506104be610cad565b6040516104cb9190613143565b60405180910390f35b3480156104e057600080fd5b506104fb60048036038101906104f691906130b0565b610cb3565b604051610509929190613332565b60405180910390f35b34801561051e57600080fd5b50610539600480360381019061053491906130dd565b610d0b565b005b34801561054757600080fd5b50610550610d6a565b60405161055d9190613143565b60405180910390f35b34801561057257600080fd5b5061057b610d96565b60405161058891906135af565b60405180910390f35b34801561059d57600080fd5b506105a6610e24565b6040516105b39190613119565b60405180910390f35b6105c4610e4a565b610603576040517f08c379a00000000000000000000000000000000000000000000000000000000081526004016105fa9061361d565b60405180910390fd5b6000600a60006001600854610618919061366c565b81526020019081526020016000206040518060a001604052908160008201548152602001600182015481526020016002820154815260200160038201548152602001600482015481525050905080602001518314158061067c575080604001518214155b6106bb576040517f08c379a00000000000000000000000000000000000000000000000000000000081526004016106b2906136ec565b60405180910390fd5b6106ca81600001518484610e87565b7feb6684a1e7c9bd2adc792fb253558f022bcbef39fb6ad31dc58cdfefdd5b5190816020015184836040015185604051610707949392919061315e565b60405180910390a1505050565b61071c610fd5565b61075b576040517f08c379a00000000000000000000000000000000000000000000000000000000081526004016107529061361d565b60405180910390fd5b61076481611012565b50565b60028054036107ab576040517f08c379a00000000000000000000000000000000000000000000000000000000081526004016107a290613758565b60405180910390fd5b600280819055506107bb816110d8565b600160028190555050565b600280540361080a576040517f08c379a000000000000000000000000000000000000000000000000000000000815260040161080190613758565b60405180910390fd5b6002808190555061081a81611379565b600160028190555050565b6002805403610869576040517f08c379a000000000000000000000000000000000000000000000000000000000815260040161086090613758565b60405180910390fd5b6002808190555061087861175b565b6001600281905550565b6006818154811061089257600080fd5b906000526020600020016000915054906101000a900473ffffffffffffffffffffffffffffffffffffffff1681565b6108c9610e4a565b610908576040517f08c379a00000000000000000000000000000000000000000000000000000000081526004016108ff9061361d565b60405180910390fd5b6000600a6000600160085461091d919061366c565b81526020019081526020016000206040518060a0016040529081600082015481526020016001820154815260200160028201548152602001600382015481526020016004820154815250509050806000015182036109b0576040517f08c379a00000000000000000000000000000000000000000000000000000000081526004016109a7906137c4565b60405180910390fd5b6109c38282602001518360400151610e87565b7fd968de290ed68f978b9e4816f7d4be9ef46189fe8eeb3eeb86199e7229cf2de08160000151836040516109f8929190613332565b60405180910390a15050565b600360009054906101000a900473ffffffffffffffffffffffffffffffffffffffff1681565b60075481565b6000600160009054906101000a900473ffffffffffffffffffffffffffffffffffffffff16905090565b60096020528060005260406000206000915090508060000154908060010154908060020154908060030154905084565b610a92611968565b610ad1576040517f08c379a0000000000000000000000000000000000000000000000000000000008152600401610ac89061361d565b60405180910390fd5b610ada816119a5565b50565b6000600c54905090565b600080600a60006001600854610afd919061366c565b8152602001908152602001600020600101549150600a60006001600854610b24919061366c565b81526020019081526020016000206002015490509091565b60055481565b6002805403610b86576040517f08c379a0000000000000000000000000000000000000000000000000000000008152600401610b7d90613758565b60405180910390fd5b60028081905550610b9681611a80565b600160028190555050565b60608282905067ffffffffffffffff811115610bc057610bbf6131be565b5b604051908082528060200260200182016040528015610bf357816020015b6060815260200190600190039081610bde5790505b50905060005b83839050811015610ca657610c7530858584818110610c1b57610c1a6137e4565b5b9050602002810190610c2d9190613822565b8080601f016020809104026020016040519081016040528093929190818152602001838380828437600081840152601f19601f82011690508083019250505050505050611f6c565b828281518110610c8857610c876137e4565b5b60200260200101819052508080610c9e90613885565b915050610bf9565b5092915050565b60045481565b600080600960008473ffffffffffffffffffffffffffffffffffffffff1673ffffffffffffffffffffffffffffffffffffffff168152602001908152602001600020600001549150610d0483611f99565b9050915091565b6002805403610d4f576040517f08c379a0000000000000000000000000000000000000000000000000000000008152600401610d4690613758565b60405180910390fd5b60028081905550610d5f8161208c565b600160028190555050565b6000600a60006001600854610d7f919061366c565b815260200190815260200160002060000154905090565b60008054610da3906138fc565b80601f0160208091040260200160405190810160405280929190818152602001828054610dcf906138fc565b8015610e1c5780601f10610df157610100808354040283529160200191610e1c565b820191906000526020600020905b815481529060010190602001808311610dff57829003601f168201915b505050505081565b600b60009054906101000a900473ffffffffffffffffffffffffffffffffffffffff1681565b6000610e54610a30565b73ffffffffffffffffffffffffffffffffffffffff163373ffffffffffffffffffffffffffffffffffffffff1614905090565b60008103610eca576040517f08c379a0000000000000000000000000000000000000000000000000000000008152600401610ec190613979565b60405180910390fd5b60008303610f0d576040517f08c379a0000000000000000000000000000000000000000000000000000000008152600401610f04906139e5565b60405180910390fd5b60006008549050600160086000828254610f279190613a05565b925050819055506040518060a001604052808581526020018481526020018381526020014281526020016000815250600a600083815260200190815260200160002060008201518160000155602082015181600101556040820151816002015560608201518160030155608082015181600401559050506000811115610fcf5742600a6000600184610fb9919061366c565b8152602001908152602001600020600401819055505b50505050565b6000610fdf610a30565b73ffffffffffffffffffffffffffffffffffffffff163373ffffffffffffffffffffffffffffffffffffffff1614905090565b6000600160009054906101000a900473ffffffffffffffffffffffffffffffffffffffff16905081600160006101000a81548173ffffffffffffffffffffffffffffffffffffffff021916908373ffffffffffffffffffffffffffffffffffffffff1602179055508173ffffffffffffffffffffffffffffffffffffffff168173ffffffffffffffffffffffffffffffffffffffff167f8292fce18fa69edf4db7b94ea2e58241df0ae57f97e0a6c9b29067028bf92d7660405160405180910390a35050565b6110e0610a30565b73ffffffffffffffffffffffffffffffffffffffff163373ffffffffffffffffffffffffffffffffffffffff161461114d576040517f08c379a00000000000000000000000000000000000000000000000000000000081526004016111449061361d565b60405180910390fd5b600073eeeeeeeeeeeeeeeeeeeeeeeeeeeeeeeeeeeeeeee73ffffffffffffffffffffffffffffffffffffffff16600b60009054906101000a900473ffffffffffffffffffffffffffffffffffffffff1673ffffffffffffffffffffffffffffffffffffffff16146111e057600b60009054906101000a900473ffffffffffffffffffffffffffffffffffffffff16611202565b7f00000000000000000000000000000000000000000000000000000000000000005b905060008173ffffffffffffffffffffffffffffffffffffffff166370a08231306040518263ffffffff1660e01b815260040161123f9190613119565b602060405180830381865afa15801561125c573d6000803e3d6000fd5b505050506040513d601f19601f820116820180604052508101906112809190613a4e565b90506112d1600b60009054906101000a900473ffffffffffffffffffffffffffffffffffffffff163330867f00000000000000000000000000000000000000000000000000000000000000006122ee565b6000818373ffffffffffffffffffffffffffffffffffffffff166370a08231306040518263ffffffff1660e01b815260040161130d9190613119565b602060405180830381865afa15801561132a573d6000803e3d6000fd5b505050506040513d601f19601f8201168201806040525081019061134e9190613a4e565b611358919061366c565b905080600c600082825461136c9190613a05565b9250508190555050505050565b6000600960006113876124ee565b73ffffffffffffffffffffffffffffffffffffffff1673ffffffffffffffffffffffffffffffffffffffff1681526020019081526020016000206000015490506000820361140a576040517f08c379a000000000000000000000000000000000000000000000000000000000815260040161140190613ac7565b60405180910390fd5b8181101561144d576040517f08c379a000000000000000000000000000000000000000000000000000000000815260040161144490613b33565b60405180910390fd5b61145d6114586124ee565b6124f6565b81810361163357600060068054806020026020016040519081016040528092919081815260200182805480156114e857602002820191906000526020600020905b8160009054906101000a900473ffffffffffffffffffffffffffffffffffffffff1673ffffffffffffffffffffffffffffffffffffffff168152602001906001019080831161149e575b5050505050905060005b8151811015611630576115036124ee565b73ffffffffffffffffffffffffffffffffffffffff1682828151811061152c5761152b6137e4565b5b602002602001015173ffffffffffffffffffffffffffffffffffffffff160361161f57816001835161155e919061366c565b8151811061156f5761156e6137e4565b5b60200260200101516006828154811061158b5761158a6137e4565b5b9060005260206000200160006101000a81548173ffffffffffffffffffffffffffffffffffffffff021916908373ffffffffffffffffffffffffffffffffffffffff16021790555060068054806115e5576115e4613b53565b5b6001900381819060005260206000200160006101000a81549073ffffffffffffffffffffffffffffffffffffffff02191690559055611630565b8061162990613885565b90506114f2565b50505b81600960006116406124ee565b73ffffffffffffffffffffffffffffffffffffffff1673ffffffffffffffffffffffffffffffffffffffff168152602001908152602001600020600001600082825461168c919061366c565b9250508190555081600760008282546116a5919061366c565b92505081905550611702600360009054906101000a900473ffffffffffffffffffffffffffffffffffffffff16306116db6124ee565b857f00000000000000000000000000000000000000000000000000000000000000006122ee565b61170a6124ee565b73ffffffffffffffffffffffffffffffffffffffff167f6352c5382c4a4578e712449ca65e83cdb392d045dfcf1cad9615189db2da244b8360405161174f9190613143565b60405180910390a25050565b600061176d6117686124ee565b6125fc565b600960006117796124ee565b73ffffffffffffffffffffffffffffffffffffffff1673ffffffffffffffffffffffffffffffffffffffff168152602001908152602001600020600201546117c19190613a05565b905060008103611806576040517f08c379a00000000000000000000000000000000000000000000000000000000081526004016117fd90613bce565b60405180910390fd5b42600960006118136124ee565b73ffffffffffffffffffffffffffffffffffffffff1673ffffffffffffffffffffffffffffffffffffffff168152602001908152602001600020600101819055506000600960006118626124ee565b73ffffffffffffffffffffffffffffffffffffffff1673ffffffffffffffffffffffffffffffffffffffff1681526020019081526020016000206002018190555060016008546118b2919061366c565b600960006118be6124ee565b73ffffffffffffffffffffffffffffffffffffffff1673ffffffffffffffffffffffffffffffffffffffff1681526020019081526020016000206003018190555061191061190a6124ee565b826127ef565b6119186124ee565b73ffffffffffffffffffffffffffffffffffffffff167ffc30cddea38e2bf4d6ea7d3f9ed3b6ad7f176419f4963bd81318067a4aee73fe8260405161195d9190613143565b60405180910390a250565b6000611972610a30565b73ffffffffffffffffffffffffffffffffffffffff163373ffffffffffffffffffffffffffffffffffffffff1614905090565b60008080546119b3906138fc565b80601f01602080910402602001604051908101604052809291908181526020018280546119df906138fc565b8015611a2c5780601f10611a0157610100808354040283529160200191611a2c565b820191906000526020600020905b815481529060010190602001808311611a0f57829003601f168201915b505050505090508160009081611a429190613d9a565b507fc9c7c3fe08b88b4df9d4d47ef47d2c43d55c025a0ba88ca442580ed9e7348a168183604051611a74929190613e6c565b60405180910390a15050565b60008103611ac3576040517f08c379a0000000000000000000000000000000000000000000000000000000008152600401611aba90613eef565b60405180910390fd5b600073eeeeeeeeeeeeeeeeeeeeeeeeeeeeeeeeeeeeeeee73ffffffffffffffffffffffffffffffffffffffff16600360009054906101000a900473ffffffffffffffffffffffffffffffffffffffff1673ffffffffffffffffffffffffffffffffffffffff1603611b56577f00000000000000000000000000000000000000000000000000000000000000009050611bbf565b60003414611b99576040517f08c379a0000000000000000000000000000000000000000000000000000000008152600401611b9090613f5b565b60405180910390fd5b600360009054906101000a900473ffffffffffffffffffffffffffffffffffffffff1690505b600060096000611bcd6124ee565b73ffffffffffffffffffffffffffffffffffffffff1673ffffffffffffffffffffffffffffffffffffffff168152602001908152602001600020600001541115611c2657611c21611c1c6124ee565b6124f6565b611d3b565b6006611c306124ee565b9080600181540180825580915050600190039060005260206000200160009091909190916101000a81548173ffffffffffffffffffffffffffffffffffffffff021916908373ffffffffffffffffffffffffffffffffffffffff1602179055504260096000611c9d6124ee565b73ffffffffffffffffffffffffffffffffffffffff1673ffffffffffffffffffffffffffffffffffffffff168152602001908152602001600020600101819055506001600854611ced919061366c565b60096000611cf96124ee565b73ffffffffffffffffffffffffffffffffffffffff1673ffffffffffffffffffffffffffffffffffffffff168152602001908152602001600020600301819055505b60008173ffffffffffffffffffffffffffffffffffffffff166370a08231306040518263ffffffff1660e01b8152600401611d769190613119565b602060405180830381865afa158015611d93573d6000803e3d6000fd5b505050506040513d601f19601f82011682018060405250810190611db79190613a4e565b9050611e0f600360009054906101000a900473ffffffffffffffffffffffffffffffffffffffff16611de76124ee565b30867f00000000000000000000000000000000000000000000000000000000000000006122ee565b6000818373ffffffffffffffffffffffffffffffffffffffff166370a08231306040518263ffffffff1660e01b8152600401611e4b9190613119565b602060405180830381865afa158015611e68573d6000803e3d6000fd5b505050506040513d601f19601f82011682018060405250810190611e8c9190613a4e565b611e96919061366c565b90508060096000611ea56124ee565b73ffffffffffffffffffffffffffffffffffffffff1673ffffffffffffffffffffffffffffffffffffffff1681526020019081526020016000206000016000828254611ef19190613a05565b925050819055508060076000828254611f0a9190613a05565b92505081905550611f196124ee565b73ffffffffffffffffffffffffffffffffffffffff167fb539ca1e5c8d398ddf1c41c30166f33404941683be4683319b57669a93dad4ef82604051611f5e9190613143565b60405180910390a250505050565b6060611f918383604051806060016040528060278152602001614655602791396128a0565b905092915050565b600080600960008473ffffffffffffffffffffffffffffffffffffffff1673ffffffffffffffffffffffffffffffffffffffff168152602001908152602001600020600001540361202e57600960008373ffffffffffffffffffffffffffffffffffffffff1673ffffffffffffffffffffffffffffffffffffffff168152602001908152602001600020600201549050612087565b612037826125fc565b600960008473ffffffffffffffffffffffffffffffffffffffff1673ffffffffffffffffffffffffffffffffffffffff168152602001908152602001600020600201546120849190613a05565b90505b919050565b612094610a30565b73ffffffffffffffffffffffffffffffffffffffff163373ffffffffffffffffffffffffffffffffffffffff1614612101576040517f08c379a00000000000000000000000000000000000000000000000000000000081526004016120f89061361d565b60405180910390fd5b600c54811161211d5780600c54612118919061366c565b612120565b60005b600c81905550612175600b60009054906101000a900473ffffffffffffffffffffffffffffffffffffffff163033847f00000000000000000000000000000000000000000000000000000000000000006122ee565b600073eeeeeeeeeeeeeeeeeeeeeeeeeeeeeeeeeeeeeeee73ffffffffffffffffffffffffffffffffffffffff16600360009054906101000a900473ffffffffffffffffffffffffffffffffffffffff1673ffffffffffffffffffffffffffffffffffffffff161461220857600360009054906101000a900473ffffffffffffffffffffffffffffffffffffffff1661222a565b7f00000000000000000000000000000000000000000000000000000000000000005b90506007548173ffffffffffffffffffffffffffffffffffffffff166370a08231306040518263ffffffff1660e01b81526004016122689190613119565b602060405180830381865afa158015612285573d6000803e3d6000fd5b505050506040513d601f19601f820116820180604052508101906122a99190613a4e565b10156122ea576040517f08c379a00000000000000000000000000000000000000000000000000000000081526004016122e190613fc7565b60405180910390fd5b5050565b60008203156124e75773eeeeeeeeeeeeeeeeeeeeeeeeeeeeeeeeeeeeeeee73ffffffffffffffffffffffffffffffffffffffff168573ffffffffffffffffffffffffffffffffffffffff16036124d9573073ffffffffffffffffffffffffffffffffffffffff168473ffffffffffffffffffffffffffffffffffffffff16036123ec578073ffffffffffffffffffffffffffffffffffffffff16632e1a7d4d836040518263ffffffff1660e01b81526004016123aa9190613143565b600060405180830381600087803b1580156123c457600080fd5b505af11580156123d8573d6000803e3d6000fd5b505050506123e783838361296d565b6124d4565b3073ffffffffffffffffffffffffffffffffffffffff168373ffffffffffffffffffffffffffffffffffffffff16036124c757348214612461576040517f08c379a000000000000000000000000000000000000000000000000000000000815260040161245890614033565b60405180910390fd5b8073ffffffffffffffffffffffffffffffffffffffff1663d0e30db0836040518263ffffffff1660e01b81526004016000604051808303818588803b1580156124a957600080fd5b505af11580156124bd573d6000803e3d6000fd5b50505050506124d3565b6124d283838361296d565b5b5b6124e6565b6124e585858585612a71565b5b5b5050505050565b600033905090565b6000612501826125fc565b905080600960008473ffffffffffffffffffffffffffffffffffffffff1673ffffffffffffffffffffffffffffffffffffffff16815260200190815260200160002060020160008282546125559190613a05565b9250508190555042600960008473ffffffffffffffffffffffffffffffffffffffff1673ffffffffffffffffffffffffffffffffffffffff1681526020019081526020016000206001018190555060016008546125b2919061366c565b600960008473ffffffffffffffffffffffffffffffffffffffff1673ffffffffffffffffffffffffffffffffffffffff168152602001908152602001600020600301819055505050565b600080600960008473ffffffffffffffffffffffffffffffffffffffff1673ffffffffffffffffffffffffffffffffffffffff16815260200190815260200160002060405180608001604052908160008201548152602001600182015481526020016002820154815260200160038201548152505090506000816060015190506000600854905060008290505b818110156127ac576000600a60008381526020019081526020016000206040518060a001604052908160008201548152602001600182015481526020016002820154815260200160038201548152602001600482015481525050905060008483036126f85785602001516126fe565b81606001515b90506000808360800151036127135742612719565b82608001515b905060008061274689600001518585612732919061366c565b61273c9190614053565b8660200151612b3d565b915091506000806127758c886040015189600001518661276691906140c4565b61277091906140c4565b612b90565b915091508380156127835750815b61278d578b61278f565b805b9b50505050505050506001816127a59190613a05565b9050612689565b506127c584600554600a6127c09190614228565b612b3d565b905080945050600454600a6127da9190614228565b846127e591906140c4565b9350505050919050565b600c54811115612834576040517f08c379a000000000000000000000000000000000000000000000000000000000815260040161282b906142bf565b60405180910390fd5b80600c6000828254612846919061366c565b9250508190555061289c600b60009054906101000a900473ffffffffffffffffffffffffffffffffffffffff163084847f00000000000000000000000000000000000000000000000000000000000000006122ee565b5050565b60606128ab84612bbf565b6128ea576040517f08c379a00000000000000000000000000000000000000000000000000000000081526004016128e190614351565b60405180910390fd5b6000808573ffffffffffffffffffffffffffffffffffffffff168560405161291291906143ad565b600060405180830381855af49150503d806000811461294d576040519150601f19603f3d011682016040523d82523d6000602084013e612952565b606091505b5091509150612962828286612be2565b925050509392505050565b60008373ffffffffffffffffffffffffffffffffffffffff1683604051612993906143ea565b60006040518083038185875af1925050503d80600081146129d0576040519150601f19603f3d011682016040523d82523d6000602084013e6129d5565b606091505b5050905080612a6b578173ffffffffffffffffffffffffffffffffffffffff1663d0e30db0846040518263ffffffff1660e01b81526004016000604051808303818588803b158015612a2657600080fd5b505af1158015612a3a573d6000803e3d6000fd5b5050505050612a6a84848473ffffffffffffffffffffffffffffffffffffffff16612c499092919063ffffffff16565b5b50505050565b8173ffffffffffffffffffffffffffffffffffffffff168373ffffffffffffffffffffffffffffffffffffffff160315612b37573073ffffffffffffffffffffffffffffffffffffffff168373ffffffffffffffffffffffffffffffffffffffff1603612b0857612b0382828673ffffffffffffffffffffffffffffffffffffffff16612c499092919063ffffffff16565b612b36565b612b358383838773ffffffffffffffffffffffffffffffffffffffff16612ccf909392919063ffffffff16565b5b5b50505050565b60008060008403612b55576001600091509150612b89565b6000838502905083858281612b6d57612b6c614095565b5b0414612b80576000809250925050612b89565b60018192509250505b9250929050565b6000806000838501905084811015612baf576000809250925050612bb8565b60018192509250505b9250929050565b6000808273ffffffffffffffffffffffffffffffffffffffff163b119050919050565b60608315612bf257829050612c42565b600083511115612c055782518084602001fd5b816040517f08c379a0000000000000000000000000000000000000000000000000000000008152600401612c3991906135af565b60405180910390fd5b9392505050565b612cca8363a9059cbb60e01b8484604051602401612c689291906143ff565b604051602081830303815290604052907bffffffffffffffffffffffffffffffffffffffffffffffffffffffff19166020820180517bffffffffffffffffffffffffffffffffffffffffffffffffffffffff8381831617835250505050612d58565b505050565b612d52846323b872dd60e01b858585604051602401612cf093929190614428565b604051602081830303815290604052907bffffffffffffffffffffffffffffffffffffffffffffffffffffffff19166020820180517bffffffffffffffffffffffffffffffffffffffffffffffffffffffff8381831617835250505050612d58565b50505050565b6000612dba826040518060400160405280602081526020017f5361666545524332303a206c6f772d6c6576656c2063616c6c206661696c65648152508573ffffffffffffffffffffffffffffffffffffffff16612e1f9092919063ffffffff16565b9050600081511115612e1a5780806020019051810190612dda9190614497565b612e19576040517f08c379a0000000000000000000000000000000000000000000000000000000008152600401612e1090614536565b60405180910390fd5b5b505050565b6060612e2e8484600085612e37565b90509392505050565b606082471015612e7c576040517f08c379a0000000000000000000000000000000000000000000000000000000008152600401612e73906145c8565b60405180910390fd5b612e8585612bbf565b612ec4576040517f08c379a0000000000000000000000000000000000000000000000000000000008152600401612ebb90614634565b60405180910390fd5b6000808673ffffffffffffffffffffffffffffffffffffffff168587604051612eed91906143ad565b60006040518083038185875af1925050503d8060008114612f2a576040519150601f19603f3d011682016040523d82523d6000602084013e612f2f565b606091505b5091509150612f3f828286612be2565b92505050949350505050565b600082825260208201905092915050565b7f63616c6c6572206e6f74206e617469766520746f6b656e20777261707065722e600082015250565b6000612f92602083612f4b565b9150612f9d82612f5c565b602082019050919050565b60006020820190508181036000830152612fc181612f85565b9050919050565b6000604051905090565b600080fd5b600080fd5b6000819050919050565b612fef81612fdc565b8114612ffa57600080fd5b50565b60008135905061300c81612fe6565b92915050565b6000806040838503121561302957613028612fd2565b5b600061303785828601612ffd565b925050602061304885828601612ffd565b9150509250929050565b600073ffffffffffffffffffffffffffffffffffffffff82169050919050565b600061307d82613052565b9050919050565b61308d81613072565b811461309857600080fd5b50565b6000813590506130aa81613084565b92915050565b6000602082840312156130c6576130c5612fd2565b5b60006130d48482850161309b565b91505092915050565b6000602082840312156130f3576130f2612fd2565b5b600061310184828501612ffd565b91505092915050565b61311381613072565b82525050565b600060208201905061312e600083018461310a565b92915050565b61313d81612fdc565b82525050565b60006020820190506131586000830184613134565b92915050565b60006080820190506131736000830187613134565b6131806020830186613134565b61318d6040830185613134565b61319a6060830184613134565b95945050505050565b600080fd5b600080fd5b6000601f19601f8301169050919050565b7f4e487b7100000000000000000000000000000000000000000000000000000000600052604160045260246000fd5b6131f6826131ad565b810181811067ffffffffffffffff82111715613215576132146131be565b5b80604052505050565b6000613228612fc8565b905061323482826131ed565b919050565b600067ffffffffffffffff821115613254576132536131be565b5b61325d826131ad565b9050602081019050919050565b82818337600083830152505050565b600061328c61328784613239565b61321e565b9050828152602081018484840111156132a8576132a76131a8565b5b6132b384828561326a565b509392505050565b600082601f8301126132d0576132cf6131a3565b5b81356132e0848260208601613279565b91505092915050565b6000602082840312156132ff576132fe612fd2565b5b600082013567ffffffffffffffff81111561331d5761331c612fd7565b5b613329848285016132bb565b91505092915050565b60006040820190506133476000830185613134565b6133546020830184613134565b9392505050565b600080fd5b600080fd5b60008083601f84011261337b5761337a6131a3565b5b8235905067ffffffffffffffff8111156133985761339761335b565b5b6020830191508360208202830111156133b4576133b3613360565b5b9250929050565b600080602083850312156133d2576133d1612fd2565b5b600083013567ffffffffffffffff8111156133f0576133ef612fd7565b5b6133fc85828601613365565b92509250509250929050565b600081519050919050565b600082825260208201905092915050565b6000819050602082019050919050565b600081519050919050565b600082825260208201905092915050565b60005b8381101561346e578082015181840152602081019050613453565b60008484015250505050565b600061348582613434565b61348f818561343f565b935061349f818560208601613450565b6134a8816131ad565b840191505092915050565b60006134bf838361347a565b905092915050565b6000602082019050919050565b60006134df82613408565b6134e98185613413565b9350836020820285016134fb85613424565b8060005b85811015613537578484038952815161351885826134b3565b9450613523836134c7565b925060208a019950506001810190506134ff565b50829750879550505050505092915050565b6000602082019050818103600083015261356381846134d4565b905092915050565b600081519050919050565b60006135818261356b565b61358b8185612f4b565b935061359b818560208601613450565b6135a4816131ad565b840191505092915050565b600060208201905081810360008301526135c98184613576565b905092915050565b7f4e6f7420617574686f72697a6564000000000000000000000000000000000000600082015250565b6000613607600e83612f4b565b9150613612826135d1565b602082019050919050565b60006020820190508181036000830152613636816135fa565b9050919050565b7f4e487b7100000000000000000000000000000000000000000000000000000000600052601160045260246000fd5b600061367782612fdc565b915061368283612fdc565b925082820390508181111561369a5761369961363d565b5b92915050565b7f52657761726420726174696f20756e6368616e6765642e000000000000000000600082015250565b60006136d6601783612f4b565b91506136e1826136a0565b602082019050919050565b60006020820190508181036000830152613705816136c9565b9050919050565b7f5265656e7472616e637947756172643a207265656e7472616e742063616c6c00600082015250565b6000613742601f83612f4b565b915061374d8261370c565b602082019050919050565b6000602082019050818103600083015261377181613735565b9050919050565b7f54696d652d756e697420756e6368616e6765642e000000000000000000000000600082015250565b60006137ae601483612f4b565b91506137b982613778565b602082019050919050565b600060208201905081810360008301526137dd816137a1565b9050919050565b7f4e487b7100000000000000000000000000000000000000000000000000000000600052603260045260246000fd5b600080fd5b600080fd5b600080fd5b6000808335600160200384360303811261383f5761383e613813565b5b80840192508235915067ffffffffffffffff82111561386157613860613818565b5b60208301925060018202360383131561387d5761387c61381d565b5b509250929050565b600061389082612fdc565b91507fffffffffffffffffffffffffffffffffffffffffffffffffffffffffffffffff82036138c2576138c161363d565b5b600182019050919050565b7f4e487b7100000000000000000000000000000000000000000000000000000000600052602260045260246000fd5b6000600282049050600182168061391457607f821691505b602082108103613927576139266138cd565b5b50919050565b7f6469766964652062792030000000000000000000000000000000000000000000600082015250565b6000613963600b83612f4b565b915061396e8261392d565b602082019050919050565b6000602082019050818103600083015261399281613956565b9050919050565b7f74696d652d756e69742063616e27742062652030000000000000000000000000600082015250565b60006139cf601483612f4b565b91506139da82613999565b602082019050919050565b600060208201905081810360008301526139fe816139c2565b9050919050565b6000613a1082612fdc565b9150613a1b83612fdc565b9250828201905080821115613a3357613a3261363d565b5b92915050565b600081519050613a4881612fe6565b92915050565b600060208284031215613a6457613a63612fd2565b5b6000613a7284828501613a39565b91505092915050565b7f5769746864726177696e67203020746f6b656e73000000000000000000000000600082015250565b6000613ab1601483612f4b565b9150613abc82613a7b565b602082019050919050565b60006020820190508181036000830152613ae081613aa4565b9050919050565b7f5769746864726177696e67206d6f7265207468616e207374616b656400000000600082015250565b6000613b1d601c83612f4b565b9150613b2882613ae7565b602082019050919050565b60006020820190508181036000830152613b4c81613b10565b9050919050565b7f4e487b7100000000000000000000000000000000000000000000000000000000600052603160045260246000fd5b7f4e6f207265776172647300000000000000000000000000000000000000000000600082015250565b6000613bb8600a83612f4b565b9150613bc382613b82565b602082019050919050565b60006020820190508181036000830152613be781613bab565b9050919050565b60008190508160005260206000209050919050565b60006020601f8301049050919050565b600082821b905092915050565b600060088302613c507fffffffffffffffffffffffffffffffffffffffffffffffffffffffffffffffff82613c13565b613c5a8683613c13565b95508019841693508086168417925050509392505050565b6000819050919050565b6000613c97613c92613c8d84612fdc565b613c72565b612fdc565b9050919050565b6000819050919050565b613cb183613c7c565b613cc5613cbd82613c9e565b848454613c20565b825550505050565b600090565b613cda613ccd565b613ce5818484613ca8565b505050565b5b81811015613d0957613cfe600082613cd2565b600181019050613ceb565b5050565b601f821115613d4e57613d1f81613bee565b613d2884613c03565b81016020851015613d37578190505b613d4b613d4385613c03565b830182613cea565b50505b505050565b600082821c905092915050565b6000613d7160001984600802613d53565b1980831691505092915050565b6000613d8a8383613d60565b9150826002028217905092915050565b613da38261356b565b67ffffffffffffffff811115613dbc57613dbb6131be565b5b613dc682546138fc565b613dd1828285613d0d565b600060209050601f831160018114613e045760008415613df2578287015190505b613dfc8582613d7e565b865550613e64565b601f198416613e1286613bee565b60005b82811015613e3a57848901518255600182019150602085019450602081019050613e15565b86831015613e575784890151613e53601f891682613d60565b8355505b6001600288020188555050505b505050505050565b60006040820190508181036000830152613e868185613576565b90508181036020830152613e9a8184613576565b90509392505050565b7f5374616b696e67203020746f6b656e7300000000000000000000000000000000600082015250565b6000613ed9601083612f4b565b9150613ee482613ea3565b602082019050919050565b60006020820190508181036000830152613f0881613ecc565b9050919050565b7f56616c7565206e6f742030000000000000000000000000000000000000000000600082015250565b6000613f45600b83612f4b565b9150613f5082613f0f565b602082019050919050565b60006020820190508181036000830152613f7481613f38565b9050919050565b7f5374616b696e6720746f6b656e2062616c616e636520726564756365642e0000600082015250565b6000613fb1601e83612f4b565b9150613fbc82613f7b565b602082019050919050565b60006020820190508181036000830152613fe081613fa4565b9050919050565b7f6d73672e76616c756520213d20616d6f756e7400000000000000000000000000600082015250565b600061401d601383612f4b565b915061402882613fe7565b602082019050919050565b6000602082019050818103600083015261404c81614010565b9050919050565b600061405e82612fdc565b915061406983612fdc565b925082820261407781612fdc565b9150828204841483151761408e5761408d61363d565b5b5092915050565b7f4e487b7100000000000000000000000000000000000000000000000000000000600052601260045260246000fd5b60006140cf82612fdc565b91506140da83612fdc565b9250826140ea576140e9614095565b5b828204905092915050565b60008160011c9050919050565b6000808291508390505b600185111561414c578086048111156141285761412761363d565b5b60018516156141375780820291505b8081029050614145856140f5565b945061410c565b94509492505050565b6000826141655760019050614221565b816141735760009050614221565b81600181146141895760028114614193576141c2565b6001915050614221565b60ff8411156141a5576141a461363d565b5b8360020a9150848211156141bc576141bb61363d565b5b50614221565b5060208310610133831016604e8410600b84101617156141f75782820a9050838111156141f2576141f161363d565b5b614221565b6142048484846001614102565b9250905081840481111561421b5761421a61363d565b5b81810290505b9392505050565b600061423382612fdc565b915061423e83612fdc565b925061426b7fffffffffffffffffffffffffffffffffffffffffffffffffffffffffffffffff8484614155565b905092915050565b7f4e6f7420656e6f7567682072657761726420746f6b656e730000000000000000600082015250565b60006142a9601883612f4b565b91506142b482614273565b602082019050919050565b600060208201905081810360008301526142d88161429c565b9050919050565b7f416464726573733a2064656c65676174652063616c6c20746f206e6f6e2d636f60008201527f6e74726163740000000000000000000000000000000000000000000000000000602082015250565b600061433b602683612f4b565b9150614346826142df565b604082019050919050565b6000602082019050818103600083015261436a8161432e565b9050919050565b600081905092915050565b600061438782613434565b6143918185614371565b93506143a1818560208601613450565b80840191505092915050565b60006143b9828461437c565b915081905092915050565b50565b60006143d4600083614371565b91506143df826143c4565b600082019050919050565b60006143f5826143c7565b9150819050919050565b6000604082019050614414600083018561310a565b6144216020830184613134565b9392505050565b600060608201905061443d600083018661310a565b61444a602083018561310a565b6144576040830184613134565b949350505050565b60008115159050919050565b6144748161445f565b811461447f57600080fd5b50565b6000815190506144918161446b565b92915050565b6000602082840312156144ad576144ac612fd2565b5b60006144bb84828501614482565b91505092915050565b7f5361666545524332303a204552433230206f7065726174696f6e20646964206e60008201527f6f74207375636365656400000000000000000000000000000000000000000000602082015250565b6000614520602a83612f4b565b915061452b826144c4565b604082019050919050565b6000602082019050818103600083015261454f81614513565b9050919050565b7f416464726573733a20696e73756666696369656e742062616c616e636520666f60008201527f722063616c6c0000000000000000000000000000000000000000000000000000602082015250565b60006145b2602683612f4b565b91506145bd82614556565b604082019050919050565b600060208201905081810360008301526145e1816145a5565b9050919050565b7f416464726573733a2063616c6c20746f206e6f6e2d636f6e7472616374000000600082015250565b600061461e601d83612f4b565b9150614629826145e8565b602082019050919050565b6000602082019050818103600083015261464d81614611565b905091905056fe416464726573733a206c6f772d6c6576656c2064656c65676174652063616c6c206661696c6564a26469706673582212202878c1c7a7f7da52491669830e68755614ba59a0d3ed6c2425d950959e46857564736f6c63430008120033",
  "linkReferences": {},
  "deployedLinkReferences": {}
}